{
  "address": "0x3176fA5060033a5d781b29De50D4A0f9E3d14F8F",
  "abi": [
    {
      "inputs": [
        {
          "internalType": "string[]",
          "name": "symbols_",
          "type": "string[]"
        },
        {
          "internalType": "contract IAggregatorV3[]",
          "name": "feeds_",
          "type": "address[]"
        },
        {
          "internalType": "uint256[]",
          "name": "baseUnits_",
          "type": "uint256[]"
        }
      ],
      "stateMutability": "nonpayable",
      "type": "constructor"
    },
    {
      "inputs": [
        {
          "internalType": "string",
          "name": "",
          "type": "string"
        }
      ],
      "name": "baseUnits",
      "outputs": [
        {
          "internalType": "uint256",
          "name": "",
          "type": "uint256"
        }
      ],
      "stateMutability": "view",
      "type": "function"
    },
    {
      "inputs": [
        {
          "internalType": "contract CToken",
          "name": "cToken",
          "type": "address"
        }
      ],
      "name": "getPrice",
      "outputs": [
        {
          "internalType": "uint256",
          "name": "",
          "type": "uint256"
        }
      ],
      "stateMutability": "view",
      "type": "function"
    },
    {
      "inputs": [
        {
          "internalType": "contract CToken",
          "name": "cToken",
          "type": "address"
        }
      ],
      "name": "getUnderlyingPrice",
      "outputs": [
        {
          "internalType": "uint256",
          "name": "",
          "type": "uint256"
        }
      ],
      "stateMutability": "view",
      "type": "function"
    },
    {
      "inputs": [],
      "name": "isPriceOracle",
      "outputs": [
        {
          "internalType": "bool",
          "name": "",
          "type": "bool"
        }
      ],
      "stateMutability": "view",
      "type": "function"
    },
    {
      "inputs": [
        {
          "internalType": "string",
          "name": "",
          "type": "string"
        }
      ],
      "name": "priceFeeds",
      "outputs": [
        {
          "internalType": "contract IAggregatorV3",
          "name": "",
          "type": "address"
        }
      ],
      "stateMutability": "view",
      "type": "function"
    }
  ],
  "transactionHash": "0xb06a4bca4a7fd20b06f9862ac3b1fc0f0fd078c4feed4f9ddc1805b0b0a9ebc9",
  "args": [
    [
      "soDAI",
      "soLUSD",
      "soMAI",
      "soOP",
      "soSNX",
      "soSUSD",
      "soUSDC",
      "soUSDCnative",
      "soUSDT",
      "soWBTC",
      "soWETH",
      "sowstETH"
    ],
    [
      "0x8dBa75e83DA73cc766A7e5a0ee71F656BAb470d6",
      "0x9dfc79Aaeb5bb0f96C6e9402671981CdFc424052",
      "0x73A3919a69eFCd5b19df8348c6740bB1446F5ed0",
      "0x0D276FC14719f9292D5C1eA2198673d1f4269246",
      "0x2FCF37343e916eAEd1f1DdaaF84458a359b53877",
      "0x7f99817d87baD03ea21E05112Ca799d715730efe",
      "0x16a9FA2FDa030272Ce99B29CF780dFA30361E0f3",
      "0x16a9FA2FDa030272Ce99B29CF780dFA30361E0f3",
      "0xECef79E109e997bCA29c1c0897ec9d7b03647F5E",
      "0x718A5788b89454aAE3A028AE9c111A29Be6c2a6F",
      "0x13e3Ee699D1909E989722E753853AE30b17e08c5",
      "0x698B585CbC4407e2D54aa898B2600B53C68958f7"
    ],
    [
      "1000000000000000000",
      "1000000000000000000",
      "1000000000000000000",
      "1000000000000000000",
      "1000000000000000000",
      "1000000000000000000",
      "1000000",
      "1000000",
      "1000000",
      "100000000",
      "1000000000000000000",
      "1000000000000000000"
    ]
  ],
  "numDeployments": 9,
  "solcInputHash": "e8e973f0161830758ef3e380f10d0137",
  "bytecode": "0x60806040523480156200001157600080fd5b5060405162000d9538038062000d958339810160408190526200003491620002c6565b60005b83518110156200012e578281815181106200005657620000566200042b565b602002602001015160008583815181106200007557620000756200042b565b60200260200101516040516200008c919062000441565b908152602001604051809103902060006101000a8154816001600160a01b0302191690836001600160a01b03160217905550818181518110620000d357620000d36200042b565b60200260200101516001858381518110620000f257620000f26200042b565b602002602001015160405162000109919062000441565b908152604051908190036020019020558062000125816200045f565b91505062000037565b5050505062000489565b634e487b7160e01b600052604160045260246000fd5b604051601f8201601f191681016001600160401b038111828210171562000179576200017962000138565b604052919050565b60006001600160401b038211156200019d576200019d62000138565b5060051b60200190565b60005b83811015620001c4578181015183820152602001620001aa565b83811115620001d4576000848401525b50505050565b600082601f830112620001ec57600080fd5b8151602062000205620001ff8362000181565b6200014e565b82815260059290921b840181019181810190868411156200022557600080fd5b8286015b84811015620002595780516001600160a01b03811681146200024b5760008081fd5b835291830191830162000229565b509695505050505050565b600082601f8301126200027657600080fd5b8151602062000289620001ff8362000181565b82815260059290921b84018101918181019086841115620002a957600080fd5b8286015b84811015620002595780518352918301918301620002ad565b600080600060608486031215620002dc57600080fd5b83516001600160401b0380821115620002f457600080fd5b818601915086601f8301126200030957600080fd5b815160206200031c620001ff8362000181565b82815260059290921b8401810191818101908a8411156200033c57600080fd5b8286015b84811015620003d2578051868111156200035a5760008081fd5b8701603f81018d136200036d5760008081fd5b8481015160408882111562000386576200038662000138565b6200039a601f8301601f191688016200014e565b8281528f82848601011115620003b05760008081fd5b620003c183898301848701620001a7565b865250505091830191830162000340565b5091890151919750909350505080821115620003ed57600080fd5b620003fb87838801620001da565b935060408601519150808211156200041257600080fd5b50620004218682870162000264565b9150509250925092565b634e487b7160e01b600052603260045260246000fd5b6000825162000455818460208701620001a7565b9190910192915050565b60006000198214156200048257634e487b7160e01b600052601160045260246000fd5b5060010190565b6108fc80620004996000396000f3fe608060405234801561001057600080fd5b50600436106100575760003560e01c806341976e091461005c578063510036831461008257806366331bba146100ad578063cb8ae86c146100c5578063fc57d4df14610111575b600080fd5b61006f61006a3660046104fb565b610124565b6040519081526020015b60405180910390f35b61006f61009036600461059a565b805160208183018101805160018252928201919093012091525481565b6100b5600181565b6040519015158152602001610079565b6100f96100d336600461059a565b80516020818301810180516000825292820191909301209152546001600160a01b031681565b6040516001600160a01b039091168152602001610079565b61006f61011f3660046104fb565b61024f565b600080826001600160a01b03166395d89b416040518163ffffffff1660e01b8152600401600060405180830381865afa158015610165573d6000803e3d6000fd5b505050506040513d6000823e601f3d908101601f1916820160405261018d919081019061064a565b9050600080826040516101a091906106b8565b90815260408051602092819003830181205463313ce56760e01b825291516001600160a01b039092169263313ce567926004808401938290030181865afa1580156101ef573d6000803e3d6000fd5b505050506040513d601f19601f8201168201806040525081019061021391906106d4565b60ff16905060006102238361039b565b50905061023182601261070d565b61023c90600a61080a565b6102469082610816565b95945050505050565b600080826001600160a01b03166395d89b416040518163ffffffff1660e01b8152600401600060405180830381865afa158015610290573d6000803e3d6000fd5b505050506040513d6000823e601f3d908101601f191682016040526102b8919081019061064a565b9050600080826040516102cb91906106b8565b90815260408051602092819003830181205463313ce56760e01b825291516001600160a01b039092169263313ce567926004808401938290030181865afa15801561031a573d6000803e3d6000fd5b505050506040513d601f19601f8201168201806040525081019061033e91906106d4565b60ff169050600061034e8361039b565b50905060018360405161036191906106b8565b9081526040519081900360200190205461037c83602461070d565b61038790600a61080a565b6103919083610816565b6102469190610835565b60008060006001600160a01b03166000846040516103b991906106b8565b908152604051908190036020019020546001600160a01b031614156104195760405162461bcd60e51b81526020600482015260116024820152701b5a5cdcda5b99c81c1c9a58d951995959607a1b60448201526064015b60405180910390fd5b60008060008560405161042c91906106b8565b9081526040805191829003602001822054633fabe5a360e21b835290516001600160a01b039091169163feaf968c9160048083019260a09291908290030181865afa15801561047f573d6000803e3d6000fd5b505050506040513d601f19601f820116820180604052508101906104a39190610876565b50935050925050600082136104f15760405162461bcd60e51b815260206004820152601460248201527370726963652063616e6e6f74206265207a65726f60601b6044820152606401610410565b9094909350915050565b60006020828403121561050d57600080fd5b81356001600160a01b038116811461052457600080fd5b9392505050565b634e487b7160e01b600052604160045260246000fd5b604051601f8201601f1916810167ffffffffffffffff8111828210171561056a5761056a61052b565b604052919050565b600067ffffffffffffffff82111561058c5761058c61052b565b50601f01601f191660200190565b6000602082840312156105ac57600080fd5b813567ffffffffffffffff8111156105c357600080fd5b8201601f810184136105d457600080fd5b80356105e76105e282610572565b610541565b8181528560208385010111156105fc57600080fd5b81602084016020830137600091810160200191909152949350505050565b60005b8381101561063557818101518382015260200161061d565b83811115610644576000848401525b50505050565b60006020828403121561065c57600080fd5b815167ffffffffffffffff81111561067357600080fd5b8201601f8101841361068457600080fd5b80516106926105e282610572565b8181528560208385010111156106a757600080fd5b61024682602083016020860161061a565b600082516106ca81846020870161061a565b9190910192915050565b6000602082840312156106e657600080fd5b815160ff8116811461052457600080fd5b634e487b7160e01b600052601160045260246000fd5b60008282101561071f5761071f6106f7565b500390565b600181815b8085111561075f578160001904821115610745576107456106f7565b8085161561075257918102915b93841c9390800290610729565b509250929050565b60008261077657506001610804565b8161078357506000610804565b816001811461079957600281146107a3576107bf565b6001915050610804565b60ff8411156107b4576107b46106f7565b50506001821b610804565b5060208310610133831016604e8410600b84101617156107e2575081810a610804565b6107ec8383610724565b8060001904821115610800576108006106f7565b0290505b92915050565b60006105248383610767565b6000816000190483118215151615610830576108306106f7565b500290565b60008261085257634e487b7160e01b600052601260045260246000fd5b500490565b805169ffffffffffffffffffff8116811461087157600080fd5b919050565b600080600080600060a0868803121561088e57600080fd5b61089786610857565b94506020860151935060408601519250606086015191506108ba60808701610857565b9050929550929590935056fea26469706673582212201d3b6066bf91da31332ab0c9855a68c5fb7b62fc18c1ec4565f287c727509b4764736f6c634300080a0033",
  "devdoc": {
    "kind": "dev",
    "methods": {
      "getUnderlyingPrice(address)": {
        "params": {
          "cToken": "The cToken to get the underlying price of"
        },
        "returns": {
          "_0": "The underlying asset price mantissa (scaled by 1e18).  Zero means the price is unavailable."
        }
      }
    },
    "version": 1
  },
  "userdoc": {
    "kind": "user",
    "methods": {
      "getUnderlyingPrice(address)": {
        "notice": "Get the underlying price of a cToken asset"
      },
      "isPriceOracle()": {
        "notice": "Indicator that this is a PriceOracle contract (for inspection)"
      }
    },
    "version": 1
  },
  "storageLayout": {
    "storage": [
      {
        "astId": 15123,
        "contract": "contracts/PriceOracle/ChainlinkPriceOracle.sol:ChainlinkPriceOracle",
        "label": "priceFeeds",
        "offset": 0,
        "slot": "0",
        "type": "t_mapping(t_string_memory_ptr,t_contract(IAggregatorV3)15110)"
      },
      {
        "astId": 15127,
        "contract": "contracts/PriceOracle/ChainlinkPriceOracle.sol:ChainlinkPriceOracle",
        "label": "baseUnits",
        "offset": 0,
        "slot": "1",
        "type": "t_mapping(t_string_memory_ptr,t_uint256)"
      }
    ],
    "types": {
      "t_contract(IAggregatorV3)15110": {
        "encoding": "inplace",
        "label": "contract IAggregatorV3",
        "numberOfBytes": "20"
      },
      "t_mapping(t_string_memory_ptr,t_contract(IAggregatorV3)15110)": {
        "encoding": "mapping",
        "key": "t_string_memory_ptr",
        "label": "mapping(string => contract IAggregatorV3)",
        "numberOfBytes": "32",
        "value": "t_contract(IAggregatorV3)15110"
      },
      "t_mapping(t_string_memory_ptr,t_uint256)": {
        "encoding": "mapping",
        "key": "t_string_memory_ptr",
        "label": "mapping(string => uint256)",
        "numberOfBytes": "32",
        "value": "t_uint256"
      },
      "t_string_memory_ptr": {
        "encoding": "bytes",
        "label": "string",
        "numberOfBytes": "32"
      },
      "t_uint256": {
        "encoding": "inplace",
        "label": "uint256",
        "numberOfBytes": "32"
      }
    }
  }
}