{
  "address": "0x22C7e5Ce392BC951f63B68a8020B121A8E1C0Fea",
  "abi": [
    {
      "inputs": [
        {
          "internalType": "string[]",
          "name": "symbols_",
          "type": "string[]"
        },
        {
          "components": [
            {
              "internalType": "address",
              "name": "feed",
              "type": "address"
            },
            {
              "internalType": "string",
              "name": "toSymbol",
              "type": "string"
            },
            {
              "internalType": "uint256",
              "name": "underlyingDecimals",
              "type": "uint256"
            }
          ],
          "internalType": "struct PriceConfig[]",
          "name": "configs_",
          "type": "tuple[]"
        }
      ],
      "stateMutability": "nonpayable",
      "type": "constructor"
    },
    {
      "inputs": [
        {
          "internalType": "string",
          "name": "",
          "type": "string"
        }
      ],
      "name": "configs",
      "outputs": [
        {
          "internalType": "address",
          "name": "feed",
          "type": "address"
        },
        {
          "internalType": "string",
          "name": "toSymbol",
          "type": "string"
        },
        {
          "internalType": "uint256",
          "name": "underlyingDecimals",
          "type": "uint256"
        }
      ],
      "stateMutability": "view",
      "type": "function"
    },
    {
      "inputs": [
        {
          "internalType": "contract CToken",
          "name": "cToken",
          "type": "address"
        }
      ],
      "name": "getPrice",
      "outputs": [
        {
          "internalType": "uint256",
          "name": "",
          "type": "uint256"
        }
      ],
      "stateMutability": "view",
      "type": "function"
    },
    {
      "inputs": [
        {
          "internalType": "string",
          "name": "symbol",
          "type": "string"
        }
      ],
      "name": "getPrice",
      "outputs": [
        {
          "internalType": "uint256",
          "name": "",
          "type": "uint256"
        }
      ],
      "stateMutability": "view",
      "type": "function"
    },
    {
      "inputs": [
        {
          "internalType": "string",
          "name": "symbol",
          "type": "string"
        }
      ],
      "name": "getUnderlyingPrice",
      "outputs": [
        {
          "internalType": "uint256",
          "name": "",
          "type": "uint256"
        }
      ],
      "stateMutability": "view",
      "type": "function"
    },
    {
      "inputs": [
        {
          "internalType": "contract CToken",
          "name": "cToken",
          "type": "address"
        }
      ],
      "name": "getUnderlyingPrice",
      "outputs": [
        {
          "internalType": "uint256",
          "name": "",
          "type": "uint256"
        }
      ],
      "stateMutability": "view",
      "type": "function"
    },
    {
      "inputs": [],
      "name": "isPriceOracle",
      "outputs": [
        {
          "internalType": "bool",
          "name": "",
          "type": "bool"
        }
      ],
      "stateMutability": "view",
      "type": "function"
    }
  ],
  "transactionHash": "0x83f1b2b8004810a9240e00ef349f173bd0f2b9a3afcb4d38296aeec139f5ad04",
  "args": [
    [
      "soDAI",
      "soUSDT",
      "soUSDC",
      "soOP",
      "soWETH",
      "soSUSD",
      "soSNX",
      "soWBTC",
      "soLUSD",
      "sowstETH",
      "soMAI",
      "soUSDCnative",
      "soVELO"
    ],
    [
      {
        "feed": "0x8dBa75e83DA73cc766A7e5a0ee71F656BAb470d6",
        "toSymbol": "USD",
        "underlyingDecimals": 18
      },
      {
        "feed": "0xECef79E109e997bCA29c1c0897ec9d7b03647F5E",
        "toSymbol": "USD",
        "underlyingDecimals": 6
      },
      {
        "feed": "0x16a9FA2FDa030272Ce99B29CF780dFA30361E0f3",
        "toSymbol": "USD",
        "underlyingDecimals": 6
      },
      {
        "feed": "0x0D276FC14719f9292D5C1eA2198673d1f4269246",
        "toSymbol": "USD",
        "underlyingDecimals": 18
      },
      {
        "feed": "0x13e3Ee699D1909E989722E753853AE30b17e08c5",
        "toSymbol": "USD",
        "underlyingDecimals": 18
      },
      {
        "feed": "0x7f99817d87baD03ea21E05112Ca799d715730efe",
        "toSymbol": "USD",
        "underlyingDecimals": 18
      },
      {
        "feed": "0x2FCF37343e916eAEd1f1DdaaF84458a359b53877",
        "toSymbol": "USD",
        "underlyingDecimals": 18
      },
      {
        "feed": "0x718A5788b89454aAE3A028AE9c111A29Be6c2a6F",
        "toSymbol": "USD",
        "underlyingDecimals": 8
      },
      {
        "feed": "0x9dfc79Aaeb5bb0f96C6e9402671981CdFc424052",
        "toSymbol": "USD",
        "underlyingDecimals": 18
      },
      {
        "feed": "0x698B585CbC4407e2D54aa898B2600B53C68958f7",
        "toSymbol": "USD",
        "underlyingDecimals": 18
      },
      {
        "feed": "0x73A3919a69eFCd5b19df8348c6740bB1446F5ed0",
        "toSymbol": "USD",
        "underlyingDecimals": 18
      },
      {
        "feed": "0x16a9FA2FDa030272Ce99B29CF780dFA30361E0f3",
        "toSymbol": "USD",
        "underlyingDecimals": 6
      },
      {
        "feed": "0x0f2Ed59657e391746C1a097BDa98F2aBb94b1120",
        "toSymbol": "USD",
        "underlyingDecimals": 18
      }
    ]
  ],
  "numDeployments": 1,
  "solcInputHash": "4b35caa8d85f45412d6d4f9c57e0c160",
  "bytecode": "0x60806040523480156200001157600080fd5b5060405162001141380380620011418339810160408190526200003491620003e7565b60005b8251811015620000f757818181518110620000565762000056620004cc565b60200260200101516000848381518110620000755762000075620004cc565b60200260200101516040516200008c9190620004e2565b90815260405160209181900382019020825181546001600160a01b0319166001600160a01b039091161781558282015180519192620000d49260018501929091019062000100565b506040919091015160029091015580620000ee8162000500565b91505062000037565b50505062000567565b8280546200010e906200052a565b90600052602060002090601f0160209004810192826200013257600085556200017d565b82601f106200014d57805160ff19168380011785556200017d565b828001600101855582156200017d579182015b828111156200017d57825182559160200191906001019062000160565b506200018b9291506200018f565b5090565b5b808211156200018b576000815560010162000190565b634e487b7160e01b600052604160045260246000fd5b604051606081016001600160401b0381118282101715620001e157620001e1620001a6565b60405290565b604051601f8201601f191681016001600160401b0381118282101715620002125762000212620001a6565b604052919050565b60006001600160401b03821115620002365762000236620001a6565b5060051b60200190565b60005b838110156200025d57818101518382015260200162000243565b838111156200026d576000848401525b50505050565b600082601f8301126200028557600080fd5b81516001600160401b03811115620002a157620002a1620001a6565b620002b6601f8201601f1916602001620001e7565b818152846020838601011115620002cc57600080fd5b620002df82602083016020870162000240565b949350505050565b600082601f830112620002f957600080fd5b81516020620003126200030c836200021a565b620001e7565b82815260059290921b840181019181810190868411156200033257600080fd5b8286015b84811015620003dc5780516001600160401b0380821115620003585760008081fd5b908801906060828b03601f1901811315620003735760008081fd5b6200037d620001bc565b838801516001600160a01b0381168114620003985760008081fd5b815260408481015184811115620003af5760008081fd5b620003bf8e8b8389010162000273565b8a8401525091909301519083015250835291830191830162000336565b509695505050505050565b60008060408385031215620003fb57600080fd5b82516001600160401b03808211156200041357600080fd5b818501915085601f8301126200042857600080fd5b815160206200043b6200030c836200021a565b82815260059290921b840181019181810190898411156200045b57600080fd5b8286015b848110156200049857805186811115620004795760008081fd5b620004898c86838b010162000273565b8452509183019183016200045f565b5091880151919650909350505080821115620004b357600080fd5b50620004c285828601620002e7565b9150509250929050565b634e487b7160e01b600052603260045260246000fd5b60008251620004f681846020870162000240565b9190910192915050565b60006000198214156200052357634e487b7160e01b600052601160045260246000fd5b5060010190565b600181811c908216806200053f57607f821691505b602082108114156200056157634e487b7160e01b600052602260045260246000fd5b50919050565b610bca80620005776000396000f3fe608060405234801561001057600080fd5b50600436106100625760003560e01c806341976e0914610067578063524f38891461008d5780635ef7fbad146100a057806366331bba146100c25780636d7f2895146100da578063fc57d4df146100ed575b600080fd5b61007a61007536600461074d565b610100565b6040519081526020015b60405180910390f35b61007a61009b3660046107e5565b61017b565b6100b36100ae3660046107e5565b61018c565b60405161008493929190610895565b6100ca600181565b6040519015158152602001610084565b61007a6100e83660046107e5565b61024c565b61007a6100fb36600461074d565b610257565b600080826001600160a01b03166395d89b416040518163ffffffff1660e01b8152600401600060405180830381865afa158015610141573d6000803e3d6000fd5b505050506040513d6000823e601f3d908101601f1916820160405261016991908101906108df565b9050610174816102cb565b9392505050565b6000610186826102cb565b92915050565b8051602081830181018051600082529282019190930120915280546001820180546001600160a01b0390921692916101c39061094d565b80601f01602080910402602001604051908101604052809291908181526020018280546101ef9061094d565b801561023c5780601f106102115761010080835404028352916020019161023c565b820191906000526020600020905b81548152906001019060200180831161021f57829003601f168201915b5050505050908060020154905083565b600061018682610526565b600080826001600160a01b03166395d89b416040518163ffffffff1660e01b8152600401600060405180830381865afa158015610298573d6000803e3d6000fd5b505050506040513d6000823e601f3d908101601f191682016040526102c091908101906108df565b905061017481610526565b6000806000836040516102de9190610988565b9081526040805191829003602090810183206060840190925281546001600160a01b03168352600182018054918401916103179061094d565b80601f01602080910402602001604051908101604052809291908181526020018280546103439061094d565b80156103905780601f1061036557610100808354040283529160200191610390565b820191906000526020600020905b81548152906001019060200180831161037357829003601f168201915b50505091835250506002919091015460209091015280519091506001600160a01b03166103f85760405162461bcd60e51b81526020600482015260116024820152701b5a5cdcda5b99c81c1c9a58d951995959607a1b60448201526064015b60405180910390fd5b600081600001516001600160a01b031663313ce5676040518163ffffffff1660e01b8152600401602060405180830381865afa15801561043c573d6000803e3d6000fd5b505050506040513d601f19601f8201168201806040525081019061046091906109a4565b60ff169050600061047083610689565b50905060006104808360126109dd565b61048b90600a610ad8565b6104959083610ae4565b604051621554d160ea1b60208201529091506023016040516020818303038152906040528051906020012084602001516040516020016104d59190610988565b604051602081830303815290604052805190602001201461051d57670de0b6b3a764000061050685602001516102cb565b6105109083610ae4565b61051a9190610b03565b90505b95945050505050565b6000806000836040516105399190610988565b9081526040805191829003602090810183206060840190925281546001600160a01b03168352600182018054918401916105729061094d565b80601f016020809104026020016040519081016040528092919081815260200182805461059e9061094d565b80156105eb5780601f106105c0576101008083540402835291602001916105eb565b820191906000526020600020905b8154815290600101906020018083116105ce57829003601f168201915b50505091835250506002919091015460209091015280519091506001600160a01b031661064e5760405162461bcd60e51b81526020600482015260116024820152701b5a5cdcda5b99c81c1c9a58d951995959607a1b60448201526064016103ef565b6000610659846102cb565b90508160400151601261066c91906109dd565b61067790600a610ad8565b6106819082610ae4565b949350505050565b60008060008084600001516001600160a01b031663feaf968c6040518163ffffffff1660e01b815260040160a060405180830381865afa1580156106d1573d6000803e3d6000fd5b505050506040513d601f19601f820116820180604052508101906106f59190610b44565b50935050925050600082136107435760405162461bcd60e51b815260206004820152601460248201527370726963652063616e6e6f74206265207a65726f60601b60448201526064016103ef565b9094909350915050565b60006020828403121561075f57600080fd5b81356001600160a01b038116811461017457600080fd5b634e487b7160e01b600052604160045260246000fd5b604051601f8201601f1916810167ffffffffffffffff811182821017156107b5576107b5610776565b604052919050565b600067ffffffffffffffff8211156107d7576107d7610776565b50601f01601f191660200190565b6000602082840312156107f757600080fd5b813567ffffffffffffffff81111561080e57600080fd5b8201601f8101841361081f57600080fd5b803561083261082d826107bd565b61078c565b81815285602083850101111561084757600080fd5b81602084016020830137600091810160200191909152949350505050565b60005b83811015610880578181015183820152602001610868565b8381111561088f576000848401525b50505050565b60018060a01b038416815260606020820152600083518060608401526108c2816080850160208801610865565b604083019390935250601f91909101601f19160160800192915050565b6000602082840312156108f157600080fd5b815167ffffffffffffffff81111561090857600080fd5b8201601f8101841361091957600080fd5b805161092761082d826107bd565b81815285602083850101111561093c57600080fd5b61051d826020830160208601610865565b600181811c9082168061096157607f821691505b6020821081141561098257634e487b7160e01b600052602260045260246000fd5b50919050565b6000825161099a818460208701610865565b9190910192915050565b6000602082840312156109b657600080fd5b815160ff8116811461017457600080fd5b634e487b7160e01b600052601160045260246000fd5b6000828210156109ef576109ef6109c7565b500390565b600181815b80851115610a2f578160001904821115610a1557610a156109c7565b80851615610a2257918102915b93841c93908002906109f9565b509250929050565b600082610a4657506001610186565b81610a5357506000610186565b8160018114610a695760028114610a7357610a8f565b6001915050610186565b60ff841115610a8457610a846109c7565b50506001821b610186565b5060208310610133831016604e8410600b8410161715610ab2575081810a610186565b610abc83836109f4565b8060001904821115610ad057610ad06109c7565b029392505050565b60006101748383610a37565b6000816000190483118215151615610afe57610afe6109c7565b500290565b600082610b2057634e487b7160e01b600052601260045260246000fd5b500490565b805169ffffffffffffffffffff81168114610b3f57600080fd5b919050565b600080600080600060a08688031215610b5c57600080fd5b610b6586610b25565b9450602086015193506040860151925060608601519150610b8860808701610b25565b9050929550929590935056fea26469706673582212208fdfa192227dd1476ed37682065779cc52d30476495d81d21c1578715f59dfa164736f6c634300080a0033",
  "devdoc": {
    "kind": "dev",
    "methods": {
      "getUnderlyingPrice(address)": {
        "params": {
          "cToken": "The cToken to get the underlying price of"
        },
        "returns": {
          "_0": "The underlying asset price mantissa (scaled by 1e18).  Zero means the price is unavailable."
        }
      }
    },
    "version": 1
  },
  "userdoc": {
    "kind": "user",
    "methods": {
      "getUnderlyingPrice(address)": {
        "notice": "Get the underlying price of a cToken asset"
      },
      "isPriceOracle()": {
        "notice": "Indicator that this is a PriceOracle contract (for inspection)"
      }
    },
    "version": 1
  },
  "storageLayout": {
    "storage": [
      {
        "astId": 4018,
        "contract": "contracts/PriceOracle/PriceOracleV2.sol:PriceOracleV2",
        "label": "configs",
        "offset": 0,
        "slot": "0",
        "type": "t_mapping(t_string_memory_ptr,t_struct(PriceConfig)4011_storage)"
      }
    ],
    "types": {
      "t_address": {
        "encoding": "inplace",
        "label": "address",
        "numberOfBytes": "20"
      },
      "t_mapping(t_string_memory_ptr,t_struct(PriceConfig)4011_storage)": {
        "encoding": "mapping",
        "key": "t_string_memory_ptr",
        "label": "mapping(string => struct PriceConfig)",
        "numberOfBytes": "32",
        "value": "t_struct(PriceConfig)4011_storage"
      },
      "t_string_memory_ptr": {
        "encoding": "bytes",
        "label": "string",
        "numberOfBytes": "32"
      },
      "t_string_storage": {
        "encoding": "bytes",
        "label": "string",
        "numberOfBytes": "32"
      },
      "t_struct(PriceConfig)4011_storage": {
        "encoding": "inplace",
        "label": "struct PriceConfig",
        "members": [
          {
            "astId": 4006,
            "contract": "contracts/PriceOracle/PriceOracleV2.sol:PriceOracleV2",
            "label": "feed",
            "offset": 0,
            "slot": "0",
            "type": "t_address"
          },
          {
            "astId": 4008,
            "contract": "contracts/PriceOracle/PriceOracleV2.sol:PriceOracleV2",
            "label": "toSymbol",
            "offset": 0,
            "slot": "1",
            "type": "t_string_storage"
          },
          {
            "astId": 4010,
            "contract": "contracts/PriceOracle/PriceOracleV2.sol:PriceOracleV2",
            "label": "underlyingDecimals",
            "offset": 0,
            "slot": "2",
            "type": "t_uint256"
          }
        ],
        "numberOfBytes": "96"
      },
      "t_uint256": {
        "encoding": "inplace",
        "label": "uint256",
        "numberOfBytes": "32"
      }
    }
  }
}