{
  "address": "0x5b22BD2fC485afe2DEAf1Ac9e2fAd316dDE163B0",
  "abi": [
    {
      "inputs": [
        {
          "internalType": "uint256",
          "name": "minDelay",
          "type": "uint256"
        },
        {
          "internalType": "address[]",
          "name": "proposers",
          "type": "address[]"
        },
        {
          "internalType": "address[]",
          "name": "executors",
          "type": "address[]"
        },
        {
          "internalType": "address",
          "name": "admin",
          "type": "address"
        }
      ],
      "stateMutability": "nonpayable",
      "type": "constructor"
    },
    {
      "anonymous": false,
      "inputs": [
        {
          "indexed": true,
          "internalType": "bytes32",
          "name": "id",
          "type": "bytes32"
        },
        {
          "indexed": true,
          "internalType": "uint256",
          "name": "index",
          "type": "uint256"
        },
        {
          "indexed": false,
          "internalType": "address",
          "name": "target",
          "type": "address"
        },
        {
          "indexed": false,
          "internalType": "uint256",
          "name": "value",
          "type": "uint256"
        },
        {
          "indexed": false,
          "internalType": "bytes",
          "name": "data",
          "type": "bytes"
        }
      ],
      "name": "CallExecuted",
      "type": "event"
    },
    {
      "anonymous": false,
      "inputs": [
        {
          "indexed": true,
          "internalType": "bytes32",
          "name": "id",
          "type": "bytes32"
        },
        {
          "indexed": false,
          "internalType": "bytes32",
          "name": "salt",
          "type": "bytes32"
        }
      ],
      "name": "CallSalt",
      "type": "event"
    },
    {
      "anonymous": false,
      "inputs": [
        {
          "indexed": true,
          "internalType": "bytes32",
          "name": "id",
          "type": "bytes32"
        },
        {
          "indexed": true,
          "internalType": "uint256",
          "name": "index",
          "type": "uint256"
        },
        {
          "indexed": false,
          "internalType": "address",
          "name": "target",
          "type": "address"
        },
        {
          "indexed": false,
          "internalType": "uint256",
          "name": "value",
          "type": "uint256"
        },
        {
          "indexed": false,
          "internalType": "bytes",
          "name": "data",
          "type": "bytes"
        },
        {
          "indexed": false,
          "internalType": "bytes32",
          "name": "predecessor",
          "type": "bytes32"
        },
        {
          "indexed": false,
          "internalType": "uint256",
          "name": "delay",
          "type": "uint256"
        }
      ],
      "name": "CallScheduled",
      "type": "event"
    },
    {
      "anonymous": false,
      "inputs": [
        {
          "indexed": true,
          "internalType": "bytes32",
          "name": "id",
          "type": "bytes32"
        }
      ],
      "name": "Cancelled",
      "type": "event"
    },
    {
      "anonymous": false,
      "inputs": [
        {
          "indexed": false,
          "internalType": "uint256",
          "name": "oldDuration",
          "type": "uint256"
        },
        {
          "indexed": false,
          "internalType": "uint256",
          "name": "newDuration",
          "type": "uint256"
        }
      ],
      "name": "MinDelayChange",
      "type": "event"
    },
    {
      "anonymous": false,
      "inputs": [
        {
          "indexed": true,
          "internalType": "bytes32",
          "name": "role",
          "type": "bytes32"
        },
        {
          "indexed": true,
          "internalType": "bytes32",
          "name": "previousAdminRole",
          "type": "bytes32"
        },
        {
          "indexed": true,
          "internalType": "bytes32",
          "name": "newAdminRole",
          "type": "bytes32"
        }
      ],
      "name": "RoleAdminChanged",
      "type": "event"
    },
    {
      "anonymous": false,
      "inputs": [
        {
          "indexed": true,
          "internalType": "bytes32",
          "name": "role",
          "type": "bytes32"
        },
        {
          "indexed": true,
          "internalType": "address",
          "name": "account",
          "type": "address"
        },
        {
          "indexed": true,
          "internalType": "address",
          "name": "sender",
          "type": "address"
        }
      ],
      "name": "RoleGranted",
      "type": "event"
    },
    {
      "anonymous": false,
      "inputs": [
        {
          "indexed": true,
          "internalType": "bytes32",
          "name": "role",
          "type": "bytes32"
        },
        {
          "indexed": true,
          "internalType": "address",
          "name": "account",
          "type": "address"
        },
        {
          "indexed": true,
          "internalType": "address",
          "name": "sender",
          "type": "address"
        }
      ],
      "name": "RoleRevoked",
      "type": "event"
    },
    {
      "inputs": [],
      "name": "CANCELLER_ROLE",
      "outputs": [
        {
          "internalType": "bytes32",
          "name": "",
          "type": "bytes32"
        }
      ],
      "stateMutability": "view",
      "type": "function"
    },
    {
      "inputs": [],
      "name": "DEFAULT_ADMIN_ROLE",
      "outputs": [
        {
          "internalType": "bytes32",
          "name": "",
          "type": "bytes32"
        }
      ],
      "stateMutability": "view",
      "type": "function"
    },
    {
      "inputs": [],
      "name": "EXECUTOR_ROLE",
      "outputs": [
        {
          "internalType": "bytes32",
          "name": "",
          "type": "bytes32"
        }
      ],
      "stateMutability": "view",
      "type": "function"
    },
    {
      "inputs": [],
      "name": "PROPOSER_ROLE",
      "outputs": [
        {
          "internalType": "bytes32",
          "name": "",
          "type": "bytes32"
        }
      ],
      "stateMutability": "view",
      "type": "function"
    },
    {
      "inputs": [],
      "name": "RESERVES_ROLE",
      "outputs": [
        {
          "internalType": "bytes32",
          "name": "",
          "type": "bytes32"
        }
      ],
      "stateMutability": "view",
      "type": "function"
    },
    {
      "inputs": [],
      "name": "SONNE_ADMIN_ROLE",
      "outputs": [
        {
          "internalType": "bytes32",
          "name": "",
          "type": "bytes32"
        }
      ],
      "stateMutability": "view",
      "type": "function"
    },
    {
      "inputs": [],
      "name": "TIMELOCK_ADMIN_ROLE",
      "outputs": [
        {
          "internalType": "bytes32",
          "name": "",
          "type": "bytes32"
        }
      ],
      "stateMutability": "view",
      "type": "function"
    },
    {
      "inputs": [
        {
          "internalType": "address",
          "name": "cToken",
          "type": "address"
        },
        {
          "internalType": "uint256",
          "name": "amount",
          "type": "uint256"
        },
        {
          "internalType": "address",
          "name": "to",
          "type": "address"
        }
      ],
      "name": "_reduceReserves",
      "outputs": [],
      "stateMutability": "nonpayable",
      "type": "function"
    },
    {
      "inputs": [
        {
          "internalType": "bytes32",
          "name": "id",
          "type": "bytes32"
        }
      ],
      "name": "cancel",
      "outputs": [],
      "stateMutability": "nonpayable",
      "type": "function"
    },
    {
      "inputs": [
        {
          "internalType": "address",
          "name": "target",
          "type": "address"
        },
        {
          "internalType": "uint256",
          "name": "value",
          "type": "uint256"
        },
        {
          "internalType": "bytes",
          "name": "payload",
          "type": "bytes"
        },
        {
          "internalType": "bytes32",
          "name": "predecessor",
          "type": "bytes32"
        },
        {
          "internalType": "bytes32",
          "name": "salt",
          "type": "bytes32"
        }
      ],
      "name": "execute",
      "outputs": [],
      "stateMutability": "payable",
      "type": "function"
    },
    {
      "inputs": [
        {
          "internalType": "address[]",
          "name": "targets",
          "type": "address[]"
        },
        {
          "internalType": "uint256[]",
          "name": "values",
          "type": "uint256[]"
        },
        {
          "internalType": "bytes[]",
          "name": "payloads",
          "type": "bytes[]"
        },
        {
          "internalType": "bytes32",
          "name": "predecessor",
          "type": "bytes32"
        },
        {
          "internalType": "bytes32",
          "name": "salt",
          "type": "bytes32"
        }
      ],
      "name": "executeBatch",
      "outputs": [],
      "stateMutability": "payable",
      "type": "function"
    },
    {
      "inputs": [],
      "name": "getMinDelay",
      "outputs": [
        {
          "internalType": "uint256",
          "name": "",
          "type": "uint256"
        }
      ],
      "stateMutability": "view",
      "type": "function"
    },
    {
      "inputs": [
        {
          "internalType": "bytes32",
          "name": "role",
          "type": "bytes32"
        }
      ],
      "name": "getRoleAdmin",
      "outputs": [
        {
          "internalType": "bytes32",
          "name": "",
          "type": "bytes32"
        }
      ],
      "stateMutability": "view",
      "type": "function"
    },
    {
      "inputs": [
        {
          "internalType": "bytes32",
          "name": "id",
          "type": "bytes32"
        }
      ],
      "name": "getTimestamp",
      "outputs": [
        {
          "internalType": "uint256",
          "name": "",
          "type": "uint256"
        }
      ],
      "stateMutability": "view",
      "type": "function"
    },
    {
      "inputs": [
        {
          "internalType": "bytes32",
          "name": "role",
          "type": "bytes32"
        },
        {
          "internalType": "address",
          "name": "account",
          "type": "address"
        }
      ],
      "name": "grantRole",
      "outputs": [],
      "stateMutability": "nonpayable",
      "type": "function"
    },
    {
      "inputs": [
        {
          "internalType": "bytes32",
          "name": "role",
          "type": "bytes32"
        },
        {
          "internalType": "address",
          "name": "account",
          "type": "address"
        }
      ],
      "name": "hasRole",
      "outputs": [
        {
          "internalType": "bool",
          "name": "",
          "type": "bool"
        }
      ],
      "stateMutability": "view",
      "type": "function"
    },
    {
      "inputs": [
        {
          "internalType": "address",
          "name": "target",
          "type": "address"
        },
        {
          "internalType": "uint256",
          "name": "value",
          "type": "uint256"
        },
        {
          "internalType": "bytes",
          "name": "data",
          "type": "bytes"
        },
        {
          "internalType": "bytes32",
          "name": "predecessor",
          "type": "bytes32"
        },
        {
          "internalType": "bytes32",
          "name": "salt",
          "type": "bytes32"
        }
      ],
      "name": "hashOperation",
      "outputs": [
        {
          "internalType": "bytes32",
          "name": "",
          "type": "bytes32"
        }
      ],
      "stateMutability": "pure",
      "type": "function"
    },
    {
      "inputs": [
        {
          "internalType": "address[]",
          "name": "targets",
          "type": "address[]"
        },
        {
          "internalType": "uint256[]",
          "name": "values",
          "type": "uint256[]"
        },
        {
          "internalType": "bytes[]",
          "name": "payloads",
          "type": "bytes[]"
        },
        {
          "internalType": "bytes32",
          "name": "predecessor",
          "type": "bytes32"
        },
        {
          "internalType": "bytes32",
          "name": "salt",
          "type": "bytes32"
        }
      ],
      "name": "hashOperationBatch",
      "outputs": [
        {
          "internalType": "bytes32",
          "name": "",
          "type": "bytes32"
        }
      ],
      "stateMutability": "pure",
      "type": "function"
    },
    {
      "inputs": [
        {
          "internalType": "bytes32",
          "name": "id",
          "type": "bytes32"
        }
      ],
      "name": "isOperation",
      "outputs": [
        {
          "internalType": "bool",
          "name": "",
          "type": "bool"
        }
      ],
      "stateMutability": "view",
      "type": "function"
    },
    {
      "inputs": [
        {
          "internalType": "bytes32",
          "name": "id",
          "type": "bytes32"
        }
      ],
      "name": "isOperationDone",
      "outputs": [
        {
          "internalType": "bool",
          "name": "",
          "type": "bool"
        }
      ],
      "stateMutability": "view",
      "type": "function"
    },
    {
      "inputs": [
        {
          "internalType": "bytes32",
          "name": "id",
          "type": "bytes32"
        }
      ],
      "name": "isOperationPending",
      "outputs": [
        {
          "internalType": "bool",
          "name": "",
          "type": "bool"
        }
      ],
      "stateMutability": "view",
      "type": "function"
    },
    {
      "inputs": [
        {
          "internalType": "bytes32",
          "name": "id",
          "type": "bytes32"
        }
      ],
      "name": "isOperationReady",
      "outputs": [
        {
          "internalType": "bool",
          "name": "",
          "type": "bool"
        }
      ],
      "stateMutability": "view",
      "type": "function"
    },
    {
      "inputs": [
        {
          "internalType": "address",
          "name": "",
          "type": "address"
        },
        {
          "internalType": "address",
          "name": "",
          "type": "address"
        },
        {
          "internalType": "uint256[]",
          "name": "",
          "type": "uint256[]"
        },
        {
          "internalType": "uint256[]",
          "name": "",
          "type": "uint256[]"
        },
        {
          "internalType": "bytes",
          "name": "",
          "type": "bytes"
        }
      ],
      "name": "onERC1155BatchReceived",
      "outputs": [
        {
          "internalType": "bytes4",
          "name": "",
          "type": "bytes4"
        }
      ],
      "stateMutability": "nonpayable",
      "type": "function"
    },
    {
      "inputs": [
        {
          "internalType": "address",
          "name": "",
          "type": "address"
        },
        {
          "internalType": "address",
          "name": "",
          "type": "address"
        },
        {
          "internalType": "uint256",
          "name": "",
          "type": "uint256"
        },
        {
          "internalType": "uint256",
          "name": "",
          "type": "uint256"
        },
        {
          "internalType": "bytes",
          "name": "",
          "type": "bytes"
        }
      ],
      "name": "onERC1155Received",
      "outputs": [
        {
          "internalType": "bytes4",
          "name": "",
          "type": "bytes4"
        }
      ],
      "stateMutability": "nonpayable",
      "type": "function"
    },
    {
      "inputs": [
        {
          "internalType": "address",
          "name": "",
          "type": "address"
        },
        {
          "internalType": "address",
          "name": "",
          "type": "address"
        },
        {
          "internalType": "uint256",
          "name": "",
          "type": "uint256"
        },
        {
          "internalType": "bytes",
          "name": "",
          "type": "bytes"
        }
      ],
      "name": "onERC721Received",
      "outputs": [
        {
          "internalType": "bytes4",
          "name": "",
          "type": "bytes4"
        }
      ],
      "stateMutability": "nonpayable",
      "type": "function"
    },
    {
      "inputs": [
        {
          "internalType": "bytes32",
          "name": "role",
          "type": "bytes32"
        },
        {
          "internalType": "address",
          "name": "account",
          "type": "address"
        }
      ],
      "name": "renounceRole",
      "outputs": [],
      "stateMutability": "nonpayable",
      "type": "function"
    },
    {
      "inputs": [
        {
          "internalType": "bytes32",
          "name": "role",
          "type": "bytes32"
        },
        {
          "internalType": "address",
          "name": "account",
          "type": "address"
        }
      ],
      "name": "revokeRole",
      "outputs": [],
      "stateMutability": "nonpayable",
      "type": "function"
    },
    {
      "inputs": [
        {
          "internalType": "address",
          "name": "target",
          "type": "address"
        },
        {
          "internalType": "uint256",
          "name": "value",
          "type": "uint256"
        },
        {
          "internalType": "bytes",
          "name": "data",
          "type": "bytes"
        },
        {
          "internalType": "bytes32",
          "name": "predecessor",
          "type": "bytes32"
        },
        {
          "internalType": "bytes32",
          "name": "salt",
          "type": "bytes32"
        },
        {
          "internalType": "uint256",
          "name": "delay",
          "type": "uint256"
        }
      ],
      "name": "schedule",
      "outputs": [],
      "stateMutability": "nonpayable",
      "type": "function"
    },
    {
      "inputs": [
        {
          "internalType": "address[]",
          "name": "targets",
          "type": "address[]"
        },
        {
          "internalType": "uint256[]",
          "name": "values",
          "type": "uint256[]"
        },
        {
          "internalType": "bytes[]",
          "name": "payloads",
          "type": "bytes[]"
        },
        {
          "internalType": "bytes32",
          "name": "predecessor",
          "type": "bytes32"
        },
        {
          "internalType": "bytes32",
          "name": "salt",
          "type": "bytes32"
        },
        {
          "internalType": "uint256",
          "name": "delay",
          "type": "uint256"
        }
      ],
      "name": "scheduleBatch",
      "outputs": [],
      "stateMutability": "nonpayable",
      "type": "function"
    },
    {
      "inputs": [
        {
          "internalType": "bytes4",
          "name": "interfaceId",
          "type": "bytes4"
        }
      ],
      "name": "supportsInterface",
      "outputs": [
        {
          "internalType": "bool",
          "name": "",
          "type": "bool"
        }
      ],
      "stateMutability": "view",
      "type": "function"
    },
    {
      "inputs": [
        {
          "internalType": "uint256",
          "name": "newDelay",
          "type": "uint256"
        }
      ],
      "name": "updateDelay",
      "outputs": [],
      "stateMutability": "nonpayable",
      "type": "function"
    },
    {
      "stateMutability": "payable",
      "type": "receive"
    }
  ],
  "transactionHash": "0x923259d4dd8194fea52f9b7e63c987e48fcefe61b7f323f5478e6eabbc449a59",
  "args": [
    10,
    [],
    [],
    "0xFb59Ce8986943163F14C590755b29dB2998F2322"
  ],
  "numDeployments": 4,
  "solcInputHash": "dbc12fa3ade7997c2d6cf7d96c26adf8",
  "bytecode": "0x60806040523480156200001157600080fd5b506040516200286e3803806200286e8339810160408190526200003491620004b3565b8383838362000053600080516020620027ce83398151915280620002d8565b6200007d6000805160206200280e833981519152600080516020620027ce833981519152620002d8565b620000a76000805160206200282e833981519152600080516020620027ce833981519152620002d8565b620000d16000805160206200284e833981519152600080516020620027ce833981519152620002d8565b620000ec600080516020620027ce8339815191523062000323565b6001600160a01b03811615620001175762000117600080516020620027ce8339815191528262000323565b60005b83518110156200019d57620001616000805160206200280e8339815191528583815181106200014d576200014d6200053a565b60200260200101516200032360201b60201c565b6200018a6000805160206200284e8339815191528583815181106200014d576200014d6200053a565b620001958162000550565b90506200011a565b5060005b8251811015620001e757620001d46000805160206200282e8339815191528483815181106200014d576200014d6200053a565b620001df8162000550565b9050620001a1565b5060028490556040805160008152602081018690527f11c24f4ead16507c69ac467fbd5e4eed5fb5c699626d2cc6d66421df253886d5910160405180910390a1505050506200024c600080516020620027ee83398151915280620002d860201b60201c565b620002877f98f0b474cf4e299f00ce401c5975d8cbdbcfed42d4f00920b414a14446ee9634600080516020620027ee833981519152620002d8565b620002a2600080516020620027ee8339815191523362000323565b620002ce7f98f0b474cf4e299f00ce401c5975d8cbdbcfed42d4f00920b414a14446ee96343362000323565b505050506200057a565b600082815260208190526040808220600101805490849055905190918391839186917fbd79b86ffe0ab8e8776151514217cd7cacd52c909f66475c3af44e129f0b00ff9190a4505050565b6200032f828262000333565b5050565b6000828152602081815260408083206001600160a01b038516845290915290205460ff166200032f576000828152602081815260408083206001600160a01b03851684529091529020805460ff191660011790556200038f3390565b6001600160a01b0316816001600160a01b0316837f2f8788117e7eff1d82e926ec794901d17c78024a50270940304540a733656f0d60405160405180910390a45050565b634e487b7160e01b600052604160045260246000fd5b80516001600160a01b03811681146200040157600080fd5b919050565b600082601f8301126200041857600080fd5b815160206001600160401b0380831115620004375762000437620003d3565b8260051b604051601f19603f830116810181811084821117156200045f576200045f620003d3565b6040529384528581018301938381019250878511156200047e57600080fd5b83870191505b84821015620004a8576200049882620003e9565b8352918301919083019062000484565b979650505050505050565b60008060008060808587031215620004ca57600080fd5b845160208601519094506001600160401b0380821115620004ea57600080fd5b620004f88883890162000406565b945060408701519150808211156200050f57600080fd5b506200051e8782880162000406565b9250506200052f60608601620003e9565b905092959194509250565b634e487b7160e01b600052603260045260246000fd5b60006000198214156200057357634e487b7160e01b600052601160045260246000fd5b5060010190565b612244806200058a6000396000f3fe6080604052600436106101dc5760003560e01c80638f2a0bb011610102578063be37c72d11610095578063d547741f11610064578063d547741f1461062b578063e38335e51461064b578063f23a6e611461065e578063f27a0c921461068a57600080fd5b8063be37c72d1461058a578063c4d252f5146105aa578063cf2b77a0146105ca578063d45c4435146105fe57600080fd5b8063b08e51c0116100d1578063b08e51c0146104d6578063b1c5f4271461050a578063b69806c81461052a578063bc197c811461055e57600080fd5b80638f2a0bb01461044d5780638f61f4f51461046d57806391d14854146104a1578063a217fddf146104c157600080fd5b8063248a9ca31161017a57806336568abe1161014957806336568abe146103cd578063584b153e146103ed57806364d623531461040d5780638065657f1461042d57600080fd5b8063248a9ca31461032c5780632ab0f5291461035c5780632f2ff15d1461038d57806331d50750146103ad57600080fd5b80630d3cf6fc116101b65780630d3cf6fc14610281578063134008d3146102b557806313bc9f20146102c8578063150b7a02146102e857600080fd5b806301d5062a146101e857806301ffc9a71461020a57806307bd02651461023f57600080fd5b366101e357005b600080fd5b3480156101f457600080fd5b50610208610203366004611796565b61069f565b005b34801561021657600080fd5b5061022a61022536600461180c565b610775565b60405190151581526020015b60405180910390f35b34801561024b57600080fd5b506102737fd8aa0f3194971a2a116679f7c2090f6939c8d4e01a2a8d7e41d55e5351469e6381565b604051908152602001610236565b34801561028d57600080fd5b506102737f5f58e3a2316349923ce3780f8d587db2d72378aed66a8261c916544fa6846ca581565b6102086102c3366004611836565b6107a0565b3480156102d457600080fd5b5061022a6102e33660046118a3565b610855565b3480156102f457600080fd5b50610313610303366004611971565b630a85bd0160e11b949350505050565b6040516001600160e01b03199091168152602001610236565b34801561033857600080fd5b506102736103473660046118a3565b60009081526020819052604090206001015490565b34801561036857600080fd5b5061022a6103773660046118a3565b6000908152600160208190526040909120541490565b34801561039957600080fd5b506102086103a83660046119dc565b61087b565b3480156103b957600080fd5b5061022a6103c83660046118a3565b6108a5565b3480156103d957600080fd5b506102086103e83660046119dc565b6108be565b3480156103f957600080fd5b5061022a6104083660046118a3565b610941565b34801561041957600080fd5b506102086104283660046118a3565b610957565b34801561043957600080fd5b50610273610448366004611836565b6109fb565b34801561045957600080fd5b50610208610468366004611a50565b610a3a565b34801561047957600080fd5b506102737fb09aa5aeb3702cfd50b6b62bc4532604938f21248a27a1d5ca736082b6819cc181565b3480156104ad57600080fd5b5061022a6104bc3660046119dc565b610bcd565b3480156104cd57600080fd5b50610273600081565b3480156104e257600080fd5b506102737ffd643c72710c63c0180259aba6b2d05451e3591a24e58b62239378085726f78381565b34801561051657600080fd5b50610273610525366004611b01565b610bf6565b34801561053657600080fd5b506102737f5ec996150448ff4e007c6c6651cc3aebcdf7ba87ebfc4800e0dd56cf2820391881565b34801561056a57600080fd5b50610313610579366004611c28565b63bc197c8160e01b95945050505050565b34801561059657600080fd5b506102086105a5366004611cd5565b610c3b565b3480156105b657600080fd5b506102086105c53660046118a3565b610eed565b3480156105d657600080fd5b506102737f98f0b474cf4e299f00ce401c5975d8cbdbcfed42d4f00920b414a14446ee963481565b34801561060a57600080fd5b506102736106193660046118a3565b60009081526001602052604090205490565b34801561063757600080fd5b506102086106463660046119dc565b610fc2565b610208610659366004611b01565b610fe7565b34801561066a57600080fd5b50610313610679366004611d17565b63f23a6e6160e01b95945050505050565b34801561069657600080fd5b50600254610273565b7fb09aa5aeb3702cfd50b6b62bc4532604938f21248a27a1d5ca736082b6819cc16106c981611171565b60006106d98989898989896109fb565b90506106e5818461117e565b6000817f4cf4410cc57040e44862ef0f45f3dd5a5e02db8eb8add648d4b0e236f1d07dca8b8b8b8b8b8a60405161072196959493929190611da8565b60405180910390a3831561076a57807f20fda5fd27a1ea7bf5b9567f143ac5470bb059374a27e8f67cb44f946f6d03878560405161076191815260200190565b60405180910390a25b505050505050505050565b60006001600160e01b03198216630271189760e51b148061079a575061079a8261126d565b92915050565b7fd8aa0f3194971a2a116679f7c2090f6939c8d4e01a2a8d7e41d55e5351469e636107cc816000610bcd565b6107da576107da81336112a2565b60006107ea8888888888886109fb565b90506107f681856112fb565b61080288888888611397565b6000817fc2617efa69bab66782fa219543714338489c4e9e178271560a91b82c3f612b588a8a8a8a60405161083a9493929190611de5565b60405180910390a361084b8161146a565b5050505050505050565b6000818152600160205260408120546001811180156108745750428111155b9392505050565b60008281526020819052604090206001015461089681611171565b6108a083836114a3565b505050565b60008181526001602052604081205481905b1192915050565b6001600160a01b03811633146109335760405162461bcd60e51b815260206004820152602f60248201527f416363657373436f6e74726f6c3a2063616e206f6e6c792072656e6f756e636560448201526e103937b632b9903337b91039b2b63360891b60648201526084015b60405180910390fd5b61093d8282611527565b5050565b60008181526001602081905260408220546108b7565b3330146109ba5760405162461bcd60e51b815260206004820152602b60248201527f54696d656c6f636b436f6e74726f6c6c65723a2063616c6c6572206d7573742060448201526a62652074696d656c6f636b60a81b606482015260840161092a565b60025460408051918252602082018390527f11c24f4ead16507c69ac467fbd5e4eed5fb5c699626d2cc6d66421df253886d5910160405180910390a1600255565b6000868686868686604051602001610a1896959493929190611da8565b6040516020818303038152906040528051906020012090509695505050505050565b7fb09aa5aeb3702cfd50b6b62bc4532604938f21248a27a1d5ca736082b6819cc1610a6481611171565b888714610a835760405162461bcd60e51b815260040161092a90611e17565b888514610aa25760405162461bcd60e51b815260040161092a90611e17565b6000610ab48b8b8b8b8b8b8b8b610bf6565b9050610ac0818461117e565b60005b8a811015610b7e5780827f4cf4410cc57040e44862ef0f45f3dd5a5e02db8eb8add648d4b0e236f1d07dca8e8e85818110610b0057610b00611e5a565b9050602002016020810190610b159190611e70565b8d8d86818110610b2757610b27611e5a565b905060200201358c8c87818110610b4057610b40611e5a565b9050602002810190610b529190611e8d565b8c8b604051610b6696959493929190611da8565b60405180910390a3610b7781611ee9565b9050610ac3565b508315610bc057807f20fda5fd27a1ea7bf5b9567f143ac5470bb059374a27e8f67cb44f946f6d038785604051610bb791815260200190565b60405180910390a25b5050505050505050505050565b6000918252602082815260408084206001600160a01b0393909316845291905290205460ff1690565b60008888888888888888604051602001610c17989796959493929190611f94565b60405160208183030381529060405280519060200120905098975050505050505050565b7f98f0b474cf4e299f00ce401c5975d8cbdbcfed42d4f00920b414a14446ee9634610c6581611171565b6001600160a01b038216610cbb5760405162461bcd60e51b815260206004820181905260248201527f536f6e6e6554696d656c6f636b3a20546f2063616e6e6f74206265207a65726f604482015260640161092a565b6000846001600160a01b0316636f307dc36040518163ffffffff1660e01b8152600401602060405180830381865afa158015610cfb573d6000803e3d6000fd5b505050506040513d601f19601f82011682018060405250810190610d1f9190612041565b6040516370a0823160e01b815230600482015290915081906000906001600160a01b038316906370a0823190602401602060405180830381865afa158015610d6b573d6000803e3d6000fd5b505050506040513d601f19601f82011682018060405250810190610d8f919061205e565b60405163601a0bf160e01b8152600481018890529091506001600160a01b0388169063601a0bf1906024016020604051808303816000875af1158015610dd9573d6000803e3d6000fd5b505050506040513d601f19601f82011682018060405250810190610dfd919061205e565b506040516370a0823160e01b81523060048201526000906001600160a01b038416906370a0823190602401602060405180830381865afa158015610e45573d6000803e3d6000fd5b505050506040513d601f19601f82011682018060405250810190610e69919061205e565b90506001600160a01b03831663a9059cbb87610e858585612077565b6040516001600160e01b031960e085901b1681526001600160a01b0390921660048301526024820152604401600060405180830381600087803b158015610ecb57600080fd5b505af1158015610edf573d6000803e3d6000fd5b505050505050505050505050565b7ffd643c72710c63c0180259aba6b2d05451e3591a24e58b62239378085726f783610f1781611171565b610f2082610941565b610f865760405162461bcd60e51b815260206004820152603160248201527f54696d656c6f636b436f6e74726f6c6c65723a206f7065726174696f6e2063616044820152701b9b9bdd0818994818d85b98d95b1b1959607a1b606482015260840161092a565b6000828152600160205260408082208290555183917fbaa1eb22f2a492ba1a5fea61b8df4d27c6c8b5f3971e63bb58fa14ff72eedb7091a25050565b600082815260208190526040902060010154610fdd81611171565b6108a08383611527565b7fd8aa0f3194971a2a116679f7c2090f6939c8d4e01a2a8d7e41d55e5351469e63611013816000610bcd565b6110215761102181336112a2565b8786146110405760405162461bcd60e51b815260040161092a90611e17565b87841461105f5760405162461bcd60e51b815260040161092a90611e17565b60006110718a8a8a8a8a8a8a8a610bf6565b905061107d81856112fb565b60005b8981101561115b5760008b8b8381811061109c5761109c611e5a565b90506020020160208101906110b19190611e70565b905060008a8a848181106110c7576110c7611e5a565b9050602002013590503660008a8a868181106110e5576110e5611e5a565b90506020028101906110f79190611e8d565b9150915061110784848484611397565b84867fc2617efa69bab66782fa219543714338489c4e9e178271560a91b82c3f612b588686868660405161113e9493929190611de5565b60405180910390a3505050508061115490611ee9565b9050611080565b506111658161146a565b50505050505050505050565b61117b81336112a2565b50565b611187826108a5565b156111ec5760405162461bcd60e51b815260206004820152602f60248201527f54696d656c6f636b436f6e74726f6c6c65723a206f7065726174696f6e20616c60448201526e1c9958591e481cd8da19591d5b1959608a1b606482015260840161092a565b60025481101561124d5760405162461bcd60e51b815260206004820152602660248201527f54696d656c6f636b436f6e74726f6c6c65723a20696e73756666696369656e746044820152652064656c617960d01b606482015260840161092a565b611257814261208e565b6000928352600160205260409092209190915550565b60006001600160e01b03198216637965db0b60e01b148061079a57506301ffc9a760e01b6001600160e01b031983161461079a565b6112ac8282610bcd565b61093d576112b98161158c565b6112c483602061159e565b6040516020016112d59291906120d6565b60408051601f198184030181529082905262461bcd60e51b825261092a9160040161214b565b61130482610855565b6113205760405162461bcd60e51b815260040161092a9061217e565b80158061133c5750600081815260016020819052604090912054145b61093d5760405162461bcd60e51b815260206004820152602660248201527f54696d656c6f636b436f6e74726f6c6c65723a206d697373696e6720646570656044820152656e64656e637960d01b606482015260840161092a565b6000846001600160a01b03168484846040516113b49291906121c8565b60006040518083038185875af1925050503d80600081146113f1576040519150601f19603f3d011682016040523d82523d6000602084013e6113f6565b606091505b50509050806114635760405162461bcd60e51b815260206004820152603360248201527f54696d656c6f636b436f6e74726f6c6c65723a20756e6465726c79696e6720746044820152721c985b9cd858dd1a5bdb881c995d995c9d1959606a1b606482015260840161092a565b5050505050565b61147381610855565b61148f5760405162461bcd60e51b815260040161092a9061217e565b600090815260016020819052604090912055565b6114ad8282610bcd565b61093d576000828152602081815260408083206001600160a01b03851684529091529020805460ff191660011790556114e33390565b6001600160a01b0316816001600160a01b0316837f2f8788117e7eff1d82e926ec794901d17c78024a50270940304540a733656f0d60405160405180910390a45050565b6115318282610bcd565b1561093d576000828152602081815260408083206001600160a01b0385168085529252808320805460ff1916905551339285917ff6391f5c32d9c69d2a47ea670b442974b53935d1edc7fd64eb21e047a839171b9190a45050565b606061079a6001600160a01b03831660145b606060006115ad8360026121d8565b6115b890600261208e565b6001600160401b038111156115cf576115cf6118bc565b6040519080825280601f01601f1916602001820160405280156115f9576020820181803683370190505b509050600360fc1b8160008151811061161457611614611e5a565b60200101906001600160f81b031916908160001a905350600f60fb1b8160018151811061164357611643611e5a565b60200101906001600160f81b031916908160001a90535060006116678460026121d8565b61167290600161208e565b90505b60018111156116ea576f181899199a1a9b1b9c1cb0b131b232b360811b85600f16601081106116a6576116a6611e5a565b1a60f81b8282815181106116bc576116bc611e5a565b60200101906001600160f81b031916908160001a90535060049490941c936116e3816121f7565b9050611675565b5083156108745760405162461bcd60e51b815260206004820181905260248201527f537472696e67733a20686578206c656e67746820696e73756666696369656e74604482015260640161092a565b6001600160a01b038116811461117b57600080fd5b60008083601f84011261176057600080fd5b5081356001600160401b0381111561177757600080fd5b60208301915083602082850101111561178f57600080fd5b9250929050565b600080600080600080600060c0888a0312156117b157600080fd5b87356117bc81611739565b96506020880135955060408801356001600160401b038111156117de57600080fd5b6117ea8a828b0161174e565b989b979a50986060810135976080820135975060a09091013595509350505050565b60006020828403121561181e57600080fd5b81356001600160e01b03198116811461087457600080fd5b60008060008060008060a0878903121561184f57600080fd5b863561185a81611739565b95506020870135945060408701356001600160401b0381111561187c57600080fd5b61188889828a0161174e565b979a9699509760608101359660809091013595509350505050565b6000602082840312156118b557600080fd5b5035919050565b634e487b7160e01b600052604160045260246000fd5b604051601f8201601f191681016001600160401b03811182821017156118fa576118fa6118bc565b604052919050565b600082601f83011261191357600080fd5b81356001600160401b0381111561192c5761192c6118bc565b61193f601f8201601f19166020016118d2565b81815284602083860101111561195457600080fd5b816020850160208301376000918101602001919091529392505050565b6000806000806080858703121561198757600080fd5b843561199281611739565b935060208501356119a281611739565b92506040850135915060608501356001600160401b038111156119c457600080fd5b6119d087828801611902565b91505092959194509250565b600080604083850312156119ef57600080fd5b823591506020830135611a0181611739565b809150509250929050565b60008083601f840112611a1e57600080fd5b5081356001600160401b03811115611a3557600080fd5b6020830191508360208260051b850101111561178f57600080fd5b600080600080600080600080600060c08a8c031215611a6e57600080fd5b89356001600160401b0380821115611a8557600080fd5b611a918d838e01611a0c565b909b50995060208c0135915080821115611aaa57600080fd5b611ab68d838e01611a0c565b909950975060408c0135915080821115611acf57600080fd5b50611adc8c828d01611a0c565b9a9d999c50979a969997986060880135976080810135975060a0013595509350505050565b60008060008060008060008060a0898b031215611b1d57600080fd5b88356001600160401b0380821115611b3457600080fd5b611b408c838d01611a0c565b909a50985060208b0135915080821115611b5957600080fd5b611b658c838d01611a0c565b909850965060408b0135915080821115611b7e57600080fd5b50611b8b8b828c01611a0c565b999c989b509699959896976060870135966080013595509350505050565b600082601f830112611bba57600080fd5b813560206001600160401b03821115611bd557611bd56118bc565b8160051b611be48282016118d2565b9283528481018201928281019087851115611bfe57600080fd5b83870192505b84831015611c1d57823582529183019190830190611c04565b979650505050505050565b600080600080600060a08688031215611c4057600080fd5b8535611c4b81611739565b94506020860135611c5b81611739565b935060408601356001600160401b0380821115611c7757600080fd5b611c8389838a01611ba9565b94506060880135915080821115611c9957600080fd5b611ca589838a01611ba9565b93506080880135915080821115611cbb57600080fd5b50611cc888828901611902565b9150509295509295909350565b600080600060608486031215611cea57600080fd5b8335611cf581611739565b9250602084013591506040840135611d0c81611739565b809150509250925092565b600080600080600060a08688031215611d2f57600080fd5b8535611d3a81611739565b94506020860135611d4a81611739565b9350604086013592506060860135915060808601356001600160401b03811115611d7357600080fd5b611cc888828901611902565b81835281816020850137506000828201602090810191909152601f909101601f19169091010190565b60018060a01b038716815285602082015260a060408201526000611dd060a083018688611d7f565b60608301949094525060800152949350505050565b60018060a01b0385168152836020820152606060408201526000611e0d606083018486611d7f565b9695505050505050565b60208082526023908201527f54696d656c6f636b436f6e74726f6c6c65723a206c656e677468206d69736d616040820152620e8c6d60eb1b606082015260800190565b634e487b7160e01b600052603260045260246000fd5b600060208284031215611e8257600080fd5b813561087481611739565b6000808335601e19843603018112611ea457600080fd5b8301803591506001600160401b03821115611ebe57600080fd5b60200191503681900382131561178f57600080fd5b634e487b7160e01b600052601160045260246000fd5b6000600019821415611efd57611efd611ed3565b5060010190565b81835260006020808501808196508560051b810191508460005b87811015611f875782840389528135601e19883603018112611f3f57600080fd5b870180356001600160401b03811115611f5757600080fd5b803603891315611f6657600080fd5b611f738682898501611d7f565b9a87019a9550505090840190600101611f1e565b5091979650505050505050565b60a0808252810188905260008960c08301825b8b811015611fd7578235611fba81611739565b6001600160a01b0316825260209283019290910190600101611fa7565b5083810360208501528881526001600160fb1b03891115611ff757600080fd5b8860051b9150818a60208301378181019150506020810160008152602084830301604085015261202881888a611f04565b6060850196909652505050608001529695505050505050565b60006020828403121561205357600080fd5b815161087481611739565b60006020828403121561207057600080fd5b5051919050565b60008282101561208957612089611ed3565b500390565b600082198211156120a1576120a1611ed3565b500190565b60005b838110156120c15781810151838201526020016120a9565b838111156120d0576000848401525b50505050565b7f416363657373436f6e74726f6c3a206163636f756e742000000000000000000081526000835161210e8160178501602088016120a6565b7001034b99036b4b9b9b4b733903937b6329607d1b601791840191820152835161213f8160288401602088016120a6565b01602801949350505050565b602081526000825180602084015261216a8160408501602087016120a6565b601f01601f19169190910160400192915050565b6020808252602a908201527f54696d656c6f636b436f6e74726f6c6c65723a206f7065726174696f6e206973604082015269206e6f7420726561647960b01b606082015260800190565b8183823760009101908152919050565b60008160001904831182151516156121f2576121f2611ed3565b500290565b60008161220657612206611ed3565b50600019019056fea2646970667358221220f643c4921fb097aebde77da56fb7240b335b231c38eed719c749fc88205f9bc164736f6c634300080a00335f58e3a2316349923ce3780f8d587db2d72378aed66a8261c916544fa6846ca55ec996150448ff4e007c6c6651cc3aebcdf7ba87ebfc4800e0dd56cf28203918b09aa5aeb3702cfd50b6b62bc4532604938f21248a27a1d5ca736082b6819cc1d8aa0f3194971a2a116679f7c2090f6939c8d4e01a2a8d7e41d55e5351469e63fd643c72710c63c0180259aba6b2d05451e3591a24e58b62239378085726f783",
  "devdoc": {
    "kind": "dev",
    "methods": {
      "cancel(bytes32)": {
        "details": "Cancel an operation. Requirements: - the caller must have the 'canceller' role."
      },
      "execute(address,uint256,bytes,bytes32,bytes32)": {
        "details": "Execute an (ready) operation containing a single transaction. Emits a {CallExecuted} event. Requirements: - the caller must have the 'executor' role."
      },
      "executeBatch(address[],uint256[],bytes[],bytes32,bytes32)": {
        "details": "Execute an (ready) operation containing a batch of transactions. Emits one {CallExecuted} event per transaction in the batch. Requirements: - the caller must have the 'executor' role."
      },
      "getMinDelay()": {
        "details": "Returns the minimum delay for an operation to become valid. This value can be changed by executing an operation that calls `updateDelay`."
      },
      "getRoleAdmin(bytes32)": {
        "details": "Returns the admin role that controls `role`. See {grantRole} and {revokeRole}. To change a role's admin, use {_setRoleAdmin}."
      },
      "getTimestamp(bytes32)": {
        "details": "Returns the timestamp at which an operation becomes ready (0 for unset operations, 1 for done operations)."
      },
      "grantRole(bytes32,address)": {
        "details": "Grants `role` to `account`. If `account` had not been already granted `role`, emits a {RoleGranted} event. Requirements: - the caller must have ``role``'s admin role. May emit a {RoleGranted} event."
      },
      "hasRole(bytes32,address)": {
        "details": "Returns `true` if `account` has been granted `role`."
      },
      "hashOperation(address,uint256,bytes,bytes32,bytes32)": {
        "details": "Returns the identifier of an operation containing a single transaction."
      },
      "hashOperationBatch(address[],uint256[],bytes[],bytes32,bytes32)": {
        "details": "Returns the identifier of an operation containing a batch of transactions."
      },
      "isOperation(bytes32)": {
        "details": "Returns whether an id correspond to a registered operation. This includes both Pending, Ready and Done operations."
      },
      "isOperationDone(bytes32)": {
        "details": "Returns whether an operation is done or not."
      },
      "isOperationPending(bytes32)": {
        "details": "Returns whether an operation is pending or not. Note that a \"pending\" operation may also be \"ready\"."
      },
      "isOperationReady(bytes32)": {
        "details": "Returns whether an operation is ready for execution. Note that a \"ready\" operation is also \"pending\"."
      },
      "onERC1155BatchReceived(address,address,uint256[],uint256[],bytes)": {
        "details": "See {IERC1155Receiver-onERC1155BatchReceived}."
      },
      "onERC1155Received(address,address,uint256,uint256,bytes)": {
        "details": "See {IERC1155Receiver-onERC1155Received}."
      },
      "onERC721Received(address,address,uint256,bytes)": {
        "details": "See {IERC721Receiver-onERC721Received}."
      },
      "renounceRole(bytes32,address)": {
        "details": "Revokes `role` from the calling account. Roles are often managed via {grantRole} and {revokeRole}: this function's purpose is to provide a mechanism for accounts to lose their privileges if they are compromised (such as when a trusted device is misplaced). If the calling account had been revoked `role`, emits a {RoleRevoked} event. Requirements: - the caller must be `account`. May emit a {RoleRevoked} event."
      },
      "revokeRole(bytes32,address)": {
        "details": "Revokes `role` from `account`. If `account` had been granted `role`, emits a {RoleRevoked} event. Requirements: - the caller must have ``role``'s admin role. May emit a {RoleRevoked} event."
      },
      "schedule(address,uint256,bytes,bytes32,bytes32,uint256)": {
        "details": "Schedule an operation containing a single transaction. Emits {CallSalt} if salt is nonzero, and {CallScheduled}. Requirements: - the caller must have the 'proposer' role."
      },
      "scheduleBatch(address[],uint256[],bytes[],bytes32,bytes32,uint256)": {
        "details": "Schedule an operation containing a batch of transactions. Emits {CallSalt} if salt is nonzero, and one {CallScheduled} event per transaction in the batch. Requirements: - the caller must have the 'proposer' role."
      },
      "supportsInterface(bytes4)": {
        "details": "See {IERC165-supportsInterface}."
      },
      "updateDelay(uint256)": {
        "details": "Changes the minimum timelock duration for future operations. Emits a {MinDelayChange} event. Requirements: - the caller must be the timelock itself. This can only be achieved by scheduling and later executing an operation where the timelock is the target and the data is the ABI-encoded call to this function."
      }
    },
    "version": 1
  },
  "userdoc": {
    "kind": "user",
    "methods": {},
    "version": 1
  },
  "storageLayout": {
    "storage": [
      {
        "astId": 24,
        "contract": "contracts/SonneTimelockController.sol:SonneTimelockController",
        "label": "_roles",
        "offset": 0,
        "slot": "0",
        "type": "t_mapping(t_bytes32,t_struct(RoleData)19_storage)"
      },
      {
        "astId": 430,
        "contract": "contracts/SonneTimelockController.sol:SonneTimelockController",
        "label": "_timestamps",
        "offset": 0,
        "slot": "1",
        "type": "t_mapping(t_bytes32,t_uint256)"
      },
      {
        "astId": 432,
        "contract": "contracts/SonneTimelockController.sol:SonneTimelockController",
        "label": "_minDelay",
        "offset": 0,
        "slot": "2",
        "type": "t_uint256"
      }
    ],
    "types": {
      "t_address": {
        "encoding": "inplace",
        "label": "address",
        "numberOfBytes": "20"
      },
      "t_bool": {
        "encoding": "inplace",
        "label": "bool",
        "numberOfBytes": "1"
      },
      "t_bytes32": {
        "encoding": "inplace",
        "label": "bytes32",
        "numberOfBytes": "32"
      },
      "t_mapping(t_address,t_bool)": {
        "encoding": "mapping",
        "key": "t_address",
        "label": "mapping(address => bool)",
        "numberOfBytes": "32",
        "value": "t_bool"
      },
      "t_mapping(t_bytes32,t_struct(RoleData)19_storage)": {
        "encoding": "mapping",
        "key": "t_bytes32",
        "label": "mapping(bytes32 => struct AccessControl.RoleData)",
        "numberOfBytes": "32",
        "value": "t_struct(RoleData)19_storage"
      },
      "t_mapping(t_bytes32,t_uint256)": {
        "encoding": "mapping",
        "key": "t_bytes32",
        "label": "mapping(bytes32 => uint256)",
        "numberOfBytes": "32",
        "value": "t_uint256"
      },
      "t_struct(RoleData)19_storage": {
        "encoding": "inplace",
        "label": "struct AccessControl.RoleData",
        "members": [
          {
            "astId": 16,
            "contract": "contracts/SonneTimelockController.sol:SonneTimelockController",
            "label": "members",
            "offset": 0,
            "slot": "0",
            "type": "t_mapping(t_address,t_bool)"
          },
          {
            "astId": 18,
            "contract": "contracts/SonneTimelockController.sol:SonneTimelockController",
            "label": "adminRole",
            "offset": 0,
            "slot": "1",
            "type": "t_bytes32"
          }
        ],
        "numberOfBytes": "64"
      },
      "t_uint256": {
        "encoding": "inplace",
        "label": "uint256",
        "numberOfBytes": "32"
      }
    }
  }
}