{
  "address": "0x2BA86032E601E001AEB0069Efff824BcF699fFc5",
  "abi": [
    {
      "anonymous": false,
      "inputs": [
        {
          "indexed": true,
          "internalType": "address",
          "name": "rewardToken",
          "type": "address"
        },
        {
          "indexed": true,
          "internalType": "address",
          "name": "cToken",
          "type": "address"
        },
        {
          "indexed": false,
          "internalType": "uint256",
          "name": "borrowSpeed",
          "type": "uint256"
        }
      ],
      "name": "BorrowSpeedUpdated",
      "type": "event"
    },
    {
      "anonymous": false,
      "inputs": [
        {
          "indexed": true,
          "internalType": "address",
          "name": "comptroller",
          "type": "address"
        }
      ],
      "name": "ComptrollerUpdated",
      "type": "event"
    },
    {
      "anonymous": false,
      "inputs": [
        {
          "indexed": false,
          "internalType": "uint8",
          "name": "version",
          "type": "uint8"
        }
      ],
      "name": "Initialized",
      "type": "event"
    },
    {
      "anonymous": false,
      "inputs": [
        {
          "indexed": true,
          "internalType": "address",
          "name": "previousOwner",
          "type": "address"
        },
        {
          "indexed": true,
          "internalType": "address",
          "name": "newOwner",
          "type": "address"
        }
      ],
      "name": "OwnershipTransferred",
      "type": "event"
    },
    {
      "anonymous": false,
      "inputs": [
        {
          "indexed": true,
          "internalType": "address",
          "name": "rewardToken",
          "type": "address"
        },
        {
          "indexed": true,
          "internalType": "address",
          "name": "user",
          "type": "address"
        },
        {
          "indexed": false,
          "internalType": "uint256",
          "name": "amount",
          "type": "uint256"
        }
      ],
      "name": "RewardAccrued",
      "type": "event"
    },
    {
      "anonymous": false,
      "inputs": [
        {
          "indexed": true,
          "internalType": "address",
          "name": "rewardToken",
          "type": "address"
        },
        {
          "indexed": true,
          "internalType": "address",
          "name": "user",
          "type": "address"
        },
        {
          "indexed": false,
          "internalType": "uint256",
          "name": "amount",
          "type": "uint256"
        }
      ],
      "name": "RewardDistributed",
      "type": "event"
    },
    {
      "anonymous": false,
      "inputs": [
        {
          "indexed": true,
          "internalType": "address",
          "name": "rewardToken",
          "type": "address"
        }
      ],
      "name": "RewardTokenAdded",
      "type": "event"
    },
    {
      "anonymous": false,
      "inputs": [
        {
          "indexed": true,
          "internalType": "address",
          "name": "rewardToken",
          "type": "address"
        },
        {
          "indexed": true,
          "internalType": "address",
          "name": "cToken",
          "type": "address"
        },
        {
          "indexed": false,
          "internalType": "uint256",
          "name": "supplySpeed",
          "type": "uint256"
        }
      ],
      "name": "SupplySpeedUpdated",
      "type": "event"
    },
    {
      "inputs": [
        {
          "internalType": "address",
          "name": "token",
          "type": "address"
        },
        {
          "internalType": "address",
          "name": "user",
          "type": "address"
        },
        {
          "internalType": "uint256",
          "name": "amount",
          "type": "uint256"
        }
      ],
      "name": "_grantReward",
      "outputs": [],
      "stateMutability": "nonpayable",
      "type": "function"
    },
    {
      "inputs": [
        {
          "internalType": "address",
          "name": "comptroller_",
          "type": "address"
        }
      ],
      "name": "_setComptroller",
      "outputs": [],
      "stateMutability": "nonpayable",
      "type": "function"
    },
    {
      "inputs": [
        {
          "internalType": "address",
          "name": "rewardToken_",
          "type": "address"
        },
        {
          "internalType": "address[]",
          "name": "cTokens",
          "type": "address[]"
        },
        {
          "internalType": "uint256[]",
          "name": "supplySpeeds",
          "type": "uint256[]"
        },
        {
          "internalType": "uint256[]",
          "name": "borrowSpeeds",
          "type": "uint256[]"
        }
      ],
      "name": "_updateRewardSpeeds",
      "outputs": [],
      "stateMutability": "nonpayable",
      "type": "function"
    },
    {
      "inputs": [
        {
          "internalType": "address",
          "name": "rewardToken_",
          "type": "address"
        }
      ],
      "name": "_whitelistToken",
      "outputs": [],
      "stateMutability": "nonpayable",
      "type": "function"
    },
    {
      "inputs": [
        {
          "internalType": "address[]",
          "name": "holders",
          "type": "address[]"
        }
      ],
      "name": "claim",
      "outputs": [],
      "stateMutability": "nonpayable",
      "type": "function"
    },
    {
      "inputs": [],
      "name": "comptroller",
      "outputs": [
        {
          "internalType": "address",
          "name": "",
          "type": "address"
        }
      ],
      "stateMutability": "view",
      "type": "function"
    },
    {
      "inputs": [],
      "name": "getBlockNumber",
      "outputs": [
        {
          "internalType": "uint32",
          "name": "",
          "type": "uint32"
        }
      ],
      "stateMutability": "view",
      "type": "function"
    },
    {
      "inputs": [],
      "name": "getRewardTokens",
      "outputs": [
        {
          "internalType": "address[]",
          "name": "",
          "type": "address[]"
        }
      ],
      "stateMutability": "view",
      "type": "function"
    },
    {
      "inputs": [
        {
          "internalType": "address",
          "name": "comptroller_",
          "type": "address"
        }
      ],
      "name": "initialize",
      "outputs": [],
      "stateMutability": "nonpayable",
      "type": "function"
    },
    {
      "inputs": [
        {
          "internalType": "address",
          "name": "cToken",
          "type": "address"
        }
      ],
      "name": "notifyBorrowIndex",
      "outputs": [],
      "stateMutability": "nonpayable",
      "type": "function"
    },
    {
      "inputs": [
        {
          "internalType": "address",
          "name": "cToken",
          "type": "address"
        },
        {
          "internalType": "address",
          "name": "borrower",
          "type": "address"
        }
      ],
      "name": "notifyBorrower",
      "outputs": [],
      "stateMutability": "nonpayable",
      "type": "function"
    },
    {
      "inputs": [
        {
          "internalType": "address",
          "name": "cToken",
          "type": "address"
        },
        {
          "internalType": "address",
          "name": "supplier",
          "type": "address"
        }
      ],
      "name": "notifySupplier",
      "outputs": [],
      "stateMutability": "nonpayable",
      "type": "function"
    },
    {
      "inputs": [
        {
          "internalType": "address",
          "name": "cToken",
          "type": "address"
        }
      ],
      "name": "notifySupplyIndex",
      "outputs": [],
      "stateMutability": "nonpayable",
      "type": "function"
    },
    {
      "inputs": [],
      "name": "owner",
      "outputs": [
        {
          "internalType": "address",
          "name": "",
          "type": "address"
        }
      ],
      "stateMutability": "view",
      "type": "function"
    },
    {
      "inputs": [],
      "name": "renounceOwnership",
      "outputs": [],
      "stateMutability": "nonpayable",
      "type": "function"
    },
    {
      "inputs": [
        {
          "internalType": "address",
          "name": "",
          "type": "address"
        },
        {
          "internalType": "address",
          "name": "",
          "type": "address"
        }
      ],
      "name": "rewardAccountState",
      "outputs": [
        {
          "internalType": "uint256",
          "name": "rewardAccrued",
          "type": "uint256"
        }
      ],
      "stateMutability": "view",
      "type": "function"
    },
    {
      "inputs": [],
      "name": "rewardInitialIndex",
      "outputs": [
        {
          "internalType": "uint224",
          "name": "",
          "type": "uint224"
        }
      ],
      "stateMutability": "view",
      "type": "function"
    },
    {
      "inputs": [
        {
          "internalType": "address",
          "name": "",
          "type": "address"
        },
        {
          "internalType": "address",
          "name": "",
          "type": "address"
        }
      ],
      "name": "rewardMarketState",
      "outputs": [
        {
          "internalType": "uint256",
          "name": "supplySpeed",
          "type": "uint256"
        },
        {
          "internalType": "uint224",
          "name": "supplyIndex",
          "type": "uint224"
        },
        {
          "internalType": "uint32",
          "name": "supplyBlock",
          "type": "uint32"
        },
        {
          "internalType": "uint256",
          "name": "borrowSpeed",
          "type": "uint256"
        },
        {
          "internalType": "uint224",
          "name": "borrowIndex",
          "type": "uint224"
        },
        {
          "internalType": "uint32",
          "name": "borrowBlock",
          "type": "uint32"
        }
      ],
      "stateMutability": "view",
      "type": "function"
    },
    {
      "inputs": [
        {
          "internalType": "address",
          "name": "",
          "type": "address"
        }
      ],
      "name": "rewardTokenExists",
      "outputs": [
        {
          "internalType": "bool",
          "name": "",
          "type": "bool"
        }
      ],
      "stateMutability": "view",
      "type": "function"
    },
    {
      "inputs": [
        {
          "internalType": "uint256",
          "name": "",
          "type": "uint256"
        }
      ],
      "name": "rewardTokens",
      "outputs": [
        {
          "internalType": "address",
          "name": "",
          "type": "address"
        }
      ],
      "stateMutability": "view",
      "type": "function"
    },
    {
      "inputs": [
        {
          "internalType": "address",
          "name": "newOwner",
          "type": "address"
        }
      ],
      "name": "transferOwnership",
      "outputs": [],
      "stateMutability": "nonpayable",
      "type": "function"
    }
  ],
  "transactionHash": "0x7073d411f267ede9c7baa97a914e9acbad3abeb063065f0a4e2fc34fb34cd36e",
  "args": [],
  "numDeployments": 1,
  "solcInputHash": "adc5e04eb8bcd06838e352736c18a3b6",
  "bytecode": "0x608060405234801561001057600080fd5b50611f6e806100206000396000f3fe608060405234801561001057600080fd5b50600436106101375760003560e01c8063715018a6116100b8578063c4d66de81161007c578063c4d66de814610369578063c4f59f9b1461037c578063e86b2fbe14610391578063eb8f2806146103a4578063f2fde38b146103b7578063f49dc6b6146103ca57600080fd5b8063715018a6146102ee5780637bb7bed1146102f6578063831e8dec146103095780638da5cb5b146103455780638daa0acb1461035657600080fd5b80634576b5db116100ff5780634576b5db1461025d57806345a49d3c146102705780635ce65fe9146102835780635fe3b5671461029657806366f91a24146102c157600080fd5b8063246467e81461013c5780632e4a5d6014610151578063318d9e5d1461018957806332894a6d1461019c57806342cbb15c14610240575b600080fd5b61014f61014a366004611a26565b6103dd565b005b61017461015f366004611a62565b60696020526000908152604090205460ff1681565b60405190151581526020015b60405180910390f35b61014f610197366004611b5a565b610480565b6101ff6101aa366004611b97565b6066602090815260009283526040808420909152908252902080546001820154600283015460039093015491926001600160e01b038083169363ffffffff600160e01b94859004811694928216929091041686565b604080519687526001600160e01b03958616602088015263ffffffff94851690870152606086019290925290921660808401521660a082015260c001610180565b6102486104fe565b60405163ffffffff9091168152602001610180565b61014f61026b366004611a62565b610544565b61014f61027e366004611b97565b61060a565b61014f610291366004611a62565b61068a565b6065546102a9906001600160a01b031681565b6040516001600160a01b039091168152602001610180565b6102d66a0c097ce7bc90715b34b9f160241b81565b6040516001600160e01b039091168152602001610180565b61014f610704565b6102a9610304366004611bca565b610718565b610337610317366004611b97565b606760209081526000928352604080842090915290825290206002015481565b604051908152602001610180565b6033546001600160a01b03166102a9565b61014f610364366004611a62565b610742565b61014f610377366004611a62565b6108ce565b6103846109fa565b6040516101809190611be3565b61014f61039f366004611a62565b610a5c565b61014f6103b2366004611b97565b610ad6565b61014f6103c5366004611a62565b610b51565b61014f6103d8366004611c8b565b610bca565b6103e5610dab565b6001600160a01b03831660009081526069602052604090205460ff1661046f5760405162461bcd60e51b815260206004820152603460248201527f5265776172644469737472696275746f723a206772616e7420726577617264206044820152731d1bdad95b88191bd95cc81b9bdd08195e1a5cdd60621b60648201526084015b60405180910390fd5b61047a838383610e05565b50505050565b6065546001600160a01b031633146104aa5760405162461bcd60e51b815260040161046690611d24565b60005b6068548110156104fa576104e8606882815481106104cd576104cd611d81565b6000918252602090912001546001600160a01b031683610f13565b806104f281611dad565b9150506104ad565b5050565b600061053f426040518060400160405280601c81526020017f626c6f636b206e756d6265722065786365656473203332206269747300000000815250610fb7565b905090565b61054c610dab565b6001600160a01b0381166105c05760405162461bcd60e51b815260206004820152603560248201527f5265776172644469737472696275746f723a20636f6d7074726f6c6c65722063604482015274616e6e6f74206265207a65726f206164647265737360581b6064820152608401610466565b606580546001600160a01b0319166001600160a01b0383169081179091556040517fc9d9371de7e3e506d239b586093b309f7167f6d4c905ecd18395c7cfa014654590600090a250565b6065546001600160a01b031633146106345760405162461bcd60e51b815260040161046690611d24565b60005b606854811015610685576106736068828154811061065757610657611d81565b6000918252602090912001546001600160a01b03168484610fe7565b8061067d81611dad565b915050610637565b505050565b6065546001600160a01b031633146106b45760405162461bcd60e51b815260040161046690611d24565b60005b6068548110156104fa576106f2606882815481106106d7576106d7611d81565b6000918252602090912001546001600160a01b031683611136565b806106fc81611dad565b9150506106b7565b61070c610dab565b6107166000611388565b565b6068818154811061072857600080fd5b6000918252602090912001546001600160a01b0316905081565b61074a610dab565b6001600160a01b0381166107bf5760405162461bcd60e51b815260206004820152603660248201527f5265776172644469737472696275746f723a2072657761726420746f6b656e2060448201527563616e6e6f74206265207a65726f206164647265737360501b6064820152608401610466565b6001600160a01b03811660009081526069602052604090205460ff161561083f5760405162461bcd60e51b815260206004820152602e60248201527f5265776172644469737472696275746f723a2072657761726420746f6b656e2060448201526d616c72656164792065786973747360901b6064820152608401610466565b6068805460018082019092557fa2153420d844928b4421650203c77babc8b33d7f2e7b450e2966db0c220977530180546001600160a01b0319166001600160a01b038416908117909155600081815260696020526040808220805460ff1916909417909355915190917ff3e4c2c64e71e6ba2eaab9a599bced62f9eb91d2cda610bf41aa8c80ff2cf82691a250565b600054610100900460ff16158080156108ee5750600054600160ff909116105b806109085750303b158015610908575060005460ff166001145b61096b5760405162461bcd60e51b815260206004820152602e60248201527f496e697469616c697a61626c653a20636f6e747261637420697320616c72656160448201526d191e481a5b9a5d1a585b1a5e995960921b6064820152608401610466565b6000805460ff19166001179055801561098e576000805461ff0019166101001790555b6109966113da565b606580546001600160a01b0319166001600160a01b03841617905580156104fa576000805461ff0019169055604051600181527f7f26b83ff96e1f2b6a682f133852f6798a09c465da95921460cefb38474024989060200160405180910390a15050565b60606068805480602002602001604051908101604052809291908181526020018280548015610a5257602002820191906000526020600020905b81546001600160a01b03168152600190910190602001808311610a34575b5050505050905090565b6065546001600160a01b03163314610a865760405162461bcd60e51b815260040161046690611d24565b60005b6068548110156104fa57610ac460688281548110610aa957610aa9611d81565b6000918252602090912001546001600160a01b031683611409565b80610ace81611dad565b915050610a89565b6065546001600160a01b03163314610b005760405162461bcd60e51b815260040161046690611d24565b60005b60685481101561068557610b3f60688281548110610b2357610b23611d81565b6000918252602090912001546001600160a01b031684846115a1565b80610b4981611dad565b915050610b03565b610b59610dab565b6001600160a01b038116610bbe5760405162461bcd60e51b815260206004820152602660248201527f4f776e61626c653a206e6577206f776e657220697320746865207a65726f206160448201526564647265737360d01b6064820152608401610466565b610bc781611388565b50565b610bd2610dab565b6001600160a01b03841660009081526069602052604090205460ff16610c515760405162461bcd60e51b815260206004820152602e60248201527f5265776172644469737472696275746f723a2072657761726420746f6b656e2060448201526d191bd95cc81b9bdd08195e1a5cdd60921b6064820152608401610466565b8151835114610cc05760405162461bcd60e51b815260206004820152603560248201527f5265776172644469737472696275746f723a20737570706c79207370656564206044820152740c2e4e4c2f240d8cadccee8d040dad2e6dac2e8c6d605b1b6064820152608401610466565b8051835114610d2f5760405162461bcd60e51b815260206004820152603560248201527f5265776172644469737472696275746f723a20626f72726f77207370656564206044820152740c2e4e4c2f240d8cadccee8d040dad2e6dac2e8c6d605b1b6064820152608401610466565b60005b8351811015610da457610d9285858381518110610d5157610d51611d81565b6020026020010151858481518110610d6b57610d6b611d81565b6020026020010151858581518110610d8557610d85611d81565b6020026020010151611772565b80610d9c81611dad565b915050610d32565b5050505050565b6033546001600160a01b031633146107165760405162461bcd60e51b815260206004820181905260248201527f4f776e61626c653a2063616c6c6572206973206e6f7420746865206f776e65726044820152606401610466565b6040516370a0823160e01b815230600482015260009081906001600160a01b038616906370a0823190602401602060405180830381865afa158015610e4e573d6000803e3d6000fd5b505050506040513d601f19601f82011682018060405250810190610e729190611dc8565b9050600083118015610e845750808311155b15610f075760405163a9059cbb60e01b81526001600160a01b0385811660048301526024820185905286169063a9059cbb906044016020604051808303816000875af1158015610ed8573d6000803e3d6000fd5b505050506040513d601f19601f82011682018060405250810190610efc9190611de1565b506000915050610f0c565b829150505b9392505050565b60005b8151811015610685576001600160a01b038316600090815260676020526040812083518290859085908110610f4d57610f4d611d81565b60200260200101516001600160a01b03166001600160a01b031681526020019081526020016000209050610f9f84848481518110610f8d57610f8d611d81565b60200260200101518360020154610e05565b60029091015580610faf81611dad565b915050610f16565b6000816401000000008410610fdf5760405162461bcd60e51b81526004016104669190611e03565b509192915050565b6001600160a01b03808416600081815260666020908152604080832087861680855290835281842094845260678352818420958716845294825280832060018501549584529182905290912080546001600160e01b039094169081905591929091908015801561106557506a0c097ce7bc90715b34b9f160241b8210155b1561107b57506a0c097ce7bc90715b34b9f160241b5b6000604051806020016040528061109285856118cc565b90526040516370a0823160e01b81526001600160a01b0388811660048301529192506000918916906370a0823190602401602060405180830381865afa1580156110e0573d6000803e3d6000fd5b505050506040513d601f19601f820116820180604052508101906111049190611dc8565b9050600061111282846118d8565b9050611122866002015482611901565b866002018190555050505050505050505050565b60006040518060200160405280836001600160a01b031663aa5af0fd6040518163ffffffff1660e01b8152600401602060405180830381865afa158015611181573d6000803e3d6000fd5b505050506040513d601f19601f820116820180604052508101906111a59190611dc8565b90526001600160a01b03808516600090815260666020908152604080832093871683529290529081209192506111d96104fe565b600383015490915063ffffffff600160e01b90910481169082161115610da45760028201541561136057600382015460009061122290600160e01b900463ffffffff1683611e58565b63ffffffff1690506000611297866001600160a01b03166347bd37186040518163ffffffff1660e01b8152600401602060405180830381865afa15801561126d573d6000803e3d6000fd5b505050506040513d601f19601f820116820180604052508101906112919190611dc8565b8661190d565b905060006112a983866002015461192b565b905060008083116112c957604051806020016040528060008152506112d3565b6112d38284611937565b604080516020810190915260038801546001600160e01b03168152909150611339906112ff908361197b565b5160408051808201909152601a81527f6e657720696e646578206578636565647320323234206269747300000000000060208201526119a7565b6003870180546001600160e01b0319166001600160e01b0392909216919091179055505050505b60038201805463ffffffff8316600160e01b026001600160e01b039091161790555050505050565b603380546001600160a01b038381166001600160a01b0319831681179093556040519116919082907f8be0079c531659141344cd1fd0a4f28419497f9722a3daafe3b4186f6b6457e090600090a35050565b600054610100900460ff166114015760405162461bcd60e51b815260040161046690611e7d565b6107166119ce565b6001600160a01b0380831660009081526066602090815260408083209385168352929052908120906114396104fe565b600183015490915063ffffffff600160e01b9091048116908216111561047a5781541561157a57600182015460009061147f90600160e01b900463ffffffff1683611e58565b63ffffffff1690506000846001600160a01b03166318160ddd6040518163ffffffff1660e01b8152600401602060405180830381865afa1580156114c7573d6000803e3d6000fd5b505050506040513d601f19601f820116820180604052508101906114eb9190611dc8565b905060006114fd83866000015461192b565b9050600080831161151d5760405180602001604052806000815250611527565b6115278284611937565b604080516020810190915260018801546001600160e01b03168152909150611553906112ff908361197b565b6001870180546001600160e01b0319166001600160e01b0392909216919091179055505050505b60018201805463ffffffff8316600160e01b026001600160e01b0390911617905550505050565b60006040518060200160405280846001600160a01b031663aa5af0fd6040518163ffffffff1660e01b8152600401602060405180830381865afa1580156115ec573d6000803e3d6000fd5b505050506040513d601f19601f820116820180604052508101906116109190611dc8565b90526001600160a01b03808616600081815260666020908152604080832089861680855290835281842094845260678352818420958916845294825280832060038501549584526001810190925290912080546001600160e01b0390941690819055939450909290918015801561169557506a0c097ce7bc90715b34b9f160241b8210155b156116ab57506a0c097ce7bc90715b34b9f160241b5b600060405180602001604052806116c285856118cc565b90526040516395dd919360e01b81526001600160a01b03898116600483015291925060009161173f91908b16906395dd919390602401602060405180830381865afa158015611715573d6000803e3d6000fd5b505050506040513d601f19601f820116820180604052508101906117399190611dc8565b8861190d565b9050600061174d82846118d8565b905061175d866002015482611901565b86600201819055505050505050505050505050565b6001600160a01b038085166000908152606660209081526040808320938716835292905220805483146118255760018101546001600160e01b03166117d4576001810180546001600160e01b0319166a0c097ce7bc90715b34b9f160241b1790555b6117de8585611409565b8281556040518381526001600160a01b0385811691908716907f61918eb908e35e96d460dc030b7c4f6448ac64f1383759571b9c7cab50efd0469060200160405180910390a35b81816002015414610da45760038101546001600160e01b0316611865576003810180546001600160e01b0319166a0c097ce7bc90715b34b9f160241b1790555b61186f8585611136565b818160020181905550836001600160a01b0316856001600160a01b03167f13b9c4bac6e50afba9701545614343a5e29bc815d483928198270e878c42eaf9846040516118bd91815260200190565b60405180910390a35050505050565b6000610f0c8284611ec8565b60006a0c097ce7bc90715b34b9f160241b6118f784846000015161192b565b610f0c9190611edf565b6000610f0c8284611f01565b6000610f0c61192484670de0b6b3a764000061192b565b83516119fe565b6000610f0c8284611f19565b604080516020810190915260008152604051806020016040528061197261196c866a0c097ce7bc90715b34b9f160241b61192b565b856119fe565b90529392505050565b604080516020810190915260008152604051806020016040528061197285600001518560000151611901565b600081600160e01b8410610fdf5760405162461bcd60e51b81526004016104669190611e03565b600054610100900460ff166119f55760405162461bcd60e51b815260040161046690611e7d565b61071633611388565b6000610f0c8284611edf565b80356001600160a01b0381168114611a2157600080fd5b919050565b600080600060608486031215611a3b57600080fd5b611a4484611a0a565b9250611a5260208501611a0a565b9150604084013590509250925092565b600060208284031215611a7457600080fd5b610f0c82611a0a565b634e487b7160e01b600052604160045260246000fd5b604051601f8201601f1916810167ffffffffffffffff81118282101715611abc57611abc611a7d565b604052919050565b600067ffffffffffffffff821115611ade57611ade611a7d565b5060051b60200190565b600082601f830112611af957600080fd5b81356020611b0e611b0983611ac4565b611a93565b82815260059290921b84018101918181019086841115611b2d57600080fd5b8286015b84811015611b4f57611b4281611a0a565b8352918301918301611b31565b509695505050505050565b600060208284031215611b6c57600080fd5b813567ffffffffffffffff811115611b8357600080fd5b611b8f84828501611ae8565b949350505050565b60008060408385031215611baa57600080fd5b611bb383611a0a565b9150611bc160208401611a0a565b90509250929050565b600060208284031215611bdc57600080fd5b5035919050565b6020808252825182820181905260009190848201906040850190845b81811015611c245783516001600160a01b031683529284019291840191600101611bff565b50909695505050505050565b600082601f830112611c4157600080fd5b81356020611c51611b0983611ac4565b82815260059290921b84018101918181019086841115611c7057600080fd5b8286015b84811015611b4f5780358352918301918301611c74565b60008060008060808587031215611ca157600080fd5b611caa85611a0a565b9350602085013567ffffffffffffffff80821115611cc757600080fd5b611cd388838901611ae8565b94506040870135915080821115611ce957600080fd5b611cf588838901611c30565b93506060870135915080821115611d0b57600080fd5b50611d1887828801611c30565b91505092959194509250565b6020808252603a908201527f5265776172644469737472696275746f723a206f6e6c7920636f6d7074726f6c60408201527f6c65722063616e2063616c6c20746869732066756e6374696f6e000000000000606082015260800190565b634e487b7160e01b600052603260045260246000fd5b634e487b7160e01b600052601160045260246000fd5b6000600019821415611dc157611dc1611d97565b5060010190565b600060208284031215611dda57600080fd5b5051919050565b600060208284031215611df357600080fd5b81518015158114610f0c57600080fd5b600060208083528351808285015260005b81811015611e3057858101830151858201604001528201611e14565b81811115611e42576000604083870101525b50601f01601f1916929092016040019392505050565b600063ffffffff83811690831681811015611e7557611e75611d97565b039392505050565b6020808252602b908201527f496e697469616c697a61626c653a20636f6e7472616374206973206e6f74206960408201526a6e697469616c697a696e6760a81b606082015260800190565b600082821015611eda57611eda611d97565b500390565b600082611efc57634e487b7160e01b600052601260045260246000fd5b500490565b60008219821115611f1457611f14611d97565b500190565b6000816000190483118215151615611f3357611f33611d97565b50029056fea2646970667358221220df4094a243eb0580d2f1646bd83f627d03a829a4c45f7017f898620229c5c4c764736f6c634300080a0033",
  "devdoc": {
    "author": "Sonne Finance",
    "kind": "dev",
    "methods": {
      "owner()": {
        "details": "Returns the address of the current owner."
      },
      "renounceOwnership()": {
        "details": "Leaves the contract without owner. It will not be possible to call `onlyOwner` functions anymore. Can only be called by the current owner. NOTE: Renouncing ownership will leave the contract without an owner, thereby removing any functionality that is only available to the owner."
      },
      "transferOwnership(address)": {
        "details": "Transfers ownership of the contract to a new account (`newOwner`). Can only be called by the current owner."
      }
    },
    "title": "External Reward Distributor (version 1)",
    "version": 1
  },
  "userdoc": {
    "kind": "user",
    "methods": {
      "comptroller()": {
        "notice": "The comptroller that rewards are distributed to"
      },
      "getRewardTokens()": {
        "notice": "Getters "
      },
      "rewardAccountState(address,address)": {
        "notice": "The Reward state for each reward token for each account"
      },
      "rewardInitialIndex()": {
        "notice": "The initial reward index for a market"
      },
      "rewardMarketState(address,address)": {
        "notice": "The Reward state for each reward token for each market"
      },
      "rewardTokenExists(address)": {
        "notice": "Flag to check if reward token added before"
      },
      "rewardTokens(uint256)": {
        "notice": "Added reward tokens"
      }
    },
    "notice": "This contract is used to distribute rewards to users for supplying and borrowing assets. Each supply and borrow changing action from comptroller will trigger index update for each reward token.",
    "version": 1
  },
  "storageLayout": {
    "storage": [
      {
        "astId": 138,
        "contract": "contracts/ExternalRewardDistributor.sol:ExternalRewardDistributor",
        "label": "_initialized",
        "offset": 0,
        "slot": "0",
        "type": "t_uint8"
      },
      {
        "astId": 141,
        "contract": "contracts/ExternalRewardDistributor.sol:ExternalRewardDistributor",
        "label": "_initializing",
        "offset": 1,
        "slot": "0",
        "type": "t_bool"
      },
      {
        "astId": 625,
        "contract": "contracts/ExternalRewardDistributor.sol:ExternalRewardDistributor",
        "label": "__gap",
        "offset": 0,
        "slot": "1",
        "type": "t_array(t_uint256)50_storage"
      },
      {
        "astId": 10,
        "contract": "contracts/ExternalRewardDistributor.sol:ExternalRewardDistributor",
        "label": "_owner",
        "offset": 0,
        "slot": "51",
        "type": "t_address"
      },
      {
        "astId": 130,
        "contract": "contracts/ExternalRewardDistributor.sol:ExternalRewardDistributor",
        "label": "__gap",
        "offset": 0,
        "slot": "52",
        "type": "t_array(t_uint256)49_storage"
      },
      {
        "astId": 2451,
        "contract": "contracts/ExternalRewardDistributor.sol:ExternalRewardDistributor",
        "label": "comptroller",
        "offset": 0,
        "slot": "101",
        "type": "t_address"
      },
      {
        "astId": 2459,
        "contract": "contracts/ExternalRewardDistributor.sol:ExternalRewardDistributor",
        "label": "rewardMarketState",
        "offset": 0,
        "slot": "102",
        "type": "t_mapping(t_address,t_mapping(t_address,t_struct(RewardMarketState)2383_storage))"
      },
      {
        "astId": 2467,
        "contract": "contracts/ExternalRewardDistributor.sol:ExternalRewardDistributor",
        "label": "rewardAccountState",
        "offset": 0,
        "slot": "103",
        "type": "t_mapping(t_address,t_mapping(t_address,t_struct(RewardAccountState)2397_storage))"
      },
      {
        "astId": 2471,
        "contract": "contracts/ExternalRewardDistributor.sol:ExternalRewardDistributor",
        "label": "rewardTokens",
        "offset": 0,
        "slot": "104",
        "type": "t_array(t_address)dyn_storage"
      },
      {
        "astId": 2476,
        "contract": "contracts/ExternalRewardDistributor.sol:ExternalRewardDistributor",
        "label": "rewardTokenExists",
        "offset": 0,
        "slot": "105",
        "type": "t_mapping(t_address,t_bool)"
      }
    ],
    "types": {
      "t_address": {
        "encoding": "inplace",
        "label": "address",
        "numberOfBytes": "20"
      },
      "t_array(t_address)dyn_storage": {
        "base": "t_address",
        "encoding": "dynamic_array",
        "label": "address[]",
        "numberOfBytes": "32"
      },
      "t_array(t_uint256)49_storage": {
        "base": "t_uint256",
        "encoding": "inplace",
        "label": "uint256[49]",
        "numberOfBytes": "1568"
      },
      "t_array(t_uint256)50_storage": {
        "base": "t_uint256",
        "encoding": "inplace",
        "label": "uint256[50]",
        "numberOfBytes": "1600"
      },
      "t_bool": {
        "encoding": "inplace",
        "label": "bool",
        "numberOfBytes": "1"
      },
      "t_mapping(t_address,t_bool)": {
        "encoding": "mapping",
        "key": "t_address",
        "label": "mapping(address => bool)",
        "numberOfBytes": "32",
        "value": "t_bool"
      },
      "t_mapping(t_address,t_mapping(t_address,t_struct(RewardAccountState)2397_storage))": {
        "encoding": "mapping",
        "key": "t_address",
        "label": "mapping(address => mapping(address => struct RewardAccountState))",
        "numberOfBytes": "32",
        "value": "t_mapping(t_address,t_struct(RewardAccountState)2397_storage)"
      },
      "t_mapping(t_address,t_mapping(t_address,t_struct(RewardMarketState)2383_storage))": {
        "encoding": "mapping",
        "key": "t_address",
        "label": "mapping(address => mapping(address => struct RewardMarketState))",
        "numberOfBytes": "32",
        "value": "t_mapping(t_address,t_struct(RewardMarketState)2383_storage)"
      },
      "t_mapping(t_address,t_struct(RewardAccountState)2397_storage)": {
        "encoding": "mapping",
        "key": "t_address",
        "label": "mapping(address => struct RewardAccountState)",
        "numberOfBytes": "32",
        "value": "t_struct(RewardAccountState)2397_storage"
      },
      "t_mapping(t_address,t_struct(RewardMarketState)2383_storage)": {
        "encoding": "mapping",
        "key": "t_address",
        "label": "mapping(address => struct RewardMarketState)",
        "numberOfBytes": "32",
        "value": "t_struct(RewardMarketState)2383_storage"
      },
      "t_mapping(t_address,t_uint256)": {
        "encoding": "mapping",
        "key": "t_address",
        "label": "mapping(address => uint256)",
        "numberOfBytes": "32",
        "value": "t_uint256"
      },
      "t_struct(RewardAccountState)2397_storage": {
        "encoding": "inplace",
        "label": "struct RewardAccountState",
        "members": [
          {
            "astId": 2388,
            "contract": "contracts/ExternalRewardDistributor.sol:ExternalRewardDistributor",
            "label": "supplierIndex",
            "offset": 0,
            "slot": "0",
            "type": "t_mapping(t_address,t_uint256)"
          },
          {
            "astId": 2393,
            "contract": "contracts/ExternalRewardDistributor.sol:ExternalRewardDistributor",
            "label": "borrowerIndex",
            "offset": 0,
            "slot": "1",
            "type": "t_mapping(t_address,t_uint256)"
          },
          {
            "astId": 2396,
            "contract": "contracts/ExternalRewardDistributor.sol:ExternalRewardDistributor",
            "label": "rewardAccrued",
            "offset": 0,
            "slot": "2",
            "type": "t_uint256"
          }
        ],
        "numberOfBytes": "96"
      },
      "t_struct(RewardMarketState)2383_storage": {
        "encoding": "inplace",
        "label": "struct RewardMarketState",
        "members": [
          {
            "astId": 2367,
            "contract": "contracts/ExternalRewardDistributor.sol:ExternalRewardDistributor",
            "label": "supplySpeed",
            "offset": 0,
            "slot": "0",
            "type": "t_uint256"
          },
          {
            "astId": 2370,
            "contract": "contracts/ExternalRewardDistributor.sol:ExternalRewardDistributor",
            "label": "supplyIndex",
            "offset": 0,
            "slot": "1",
            "type": "t_uint224"
          },
          {
            "astId": 2373,
            "contract": "contracts/ExternalRewardDistributor.sol:ExternalRewardDistributor",
            "label": "supplyBlock",
            "offset": 28,
            "slot": "1",
            "type": "t_uint32"
          },
          {
            "astId": 2376,
            "contract": "contracts/ExternalRewardDistributor.sol:ExternalRewardDistributor",
            "label": "borrowSpeed",
            "offset": 0,
            "slot": "2",
            "type": "t_uint256"
          },
          {
            "astId": 2379,
            "contract": "contracts/ExternalRewardDistributor.sol:ExternalRewardDistributor",
            "label": "borrowIndex",
            "offset": 0,
            "slot": "3",
            "type": "t_uint224"
          },
          {
            "astId": 2382,
            "contract": "contracts/ExternalRewardDistributor.sol:ExternalRewardDistributor",
            "label": "borrowBlock",
            "offset": 28,
            "slot": "3",
            "type": "t_uint32"
          }
        ],
        "numberOfBytes": "128"
      },
      "t_uint224": {
        "encoding": "inplace",
        "label": "uint224",
        "numberOfBytes": "28"
      },
      "t_uint256": {
        "encoding": "inplace",
        "label": "uint256",
        "numberOfBytes": "32"
      },
      "t_uint32": {
        "encoding": "inplace",
        "label": "uint32",
        "numberOfBytes": "4"
      },
      "t_uint8": {
        "encoding": "inplace",
        "label": "uint8",
        "numberOfBytes": "1"
      }
    }
  }
}